:020000040800F2
:1000000000000120154900080D1D00080F1D000803
:10001000111D0008131D0008151D00080000000038
:10002000000000000000000000000000A1370008F0
:10003000171D000800000000D1370008153800081F
:100040005D4900085D4900085D4900085D490008F8
:100050005D4900085D4900085D4900085D490008E8
:100060005D4900085D4900085D4900085D490008D8
:100070005D4900085D4900085D4900085D490008C8
:100080005D4900085D4900085D4900085D490008B8
:100090005D4900085D4900085D4900085D490008A8
:1000A0005D4900085D4900085D4900085D49000898
:1000B000191D00085D4900085D4900085D490008F8
:1000C0005D4900085D4900085D4900085D49000878
:1000D0005D4900085D4900085D4900085D49000868
:1000E0005D4900085D4900085D4900085D49000858
:1000F0005D4900085D4900085D4900085D49000848
:100100005D4900085D4900085D4900085D49000837
:100110005D4900085D4900085D4900085D49000827
:100120005D4900085D4900085D4900085D49000817
:1001300000000000000000000000000000000000BF
:1001400000000000000000000000000000000000AF
:10015000000000000000000000000000000000009F
:10016000000000000000000000000000000000008F
:10017000000000000000000000000000000000007F
:10018000000000000000000000000000000000006F
:10019000000000000000000000000000000000005F
:1001A000000000000000000000000000000000004F
:1001B000000000000000000000000000000000003F
:1001C000000000000000000000000000000000002F
:1001D000000000000000000000000000000000001F
:0401E0005FF8E0F1F3
:1001F0000348044B834202D0034B03B118477047B6
:10020000B8000020B8000020000000000548064BA0
:100210001B1AD90F01EBA301491002D0034B03B104
:1002200018477047B8000020B80000200000000008
:1002300010B5064C237843B9FFF7DAFF044B13B12E
:100240000448AFF300800123237010BDB8000020E4
:10025000000000006049000808B5044B1BB10449C8
:100260000448AFF30080BDE80840CFE7000000007D
:10027000BC0000206049000870B50F4B0F4DAB4229
:10028000A3EB050607D00024B61055F8043B013453
:100290009847A642F9D804F063FB094D094B5E1B51
:1002A000AB424FEAA60606D0002455F8043B0134C1
:1002B0009847A642F9D870BDBC4A0008BC4A00085D
:1002C000BC4A0008C04A000870B5860747D0541ED3
:1002D000002A3ED00346CAB201E0013C39D303F8FC
:1002E000012B9D07F9D1032C2CD9CDB205EB0525A7
:1002F0000F2C1A4605EB054534D9A4F1100C2CF04F
:100300000F0603F1100EB6444FEA1C1CC2E900555B
:10031000C2E9025510327245F8D10CF1010214F015
:100320000C0F03EB021204F00F0C13D0ACF104031A
:1003300023F003030433134442F8045B9342FBD1DC
:100340000CF003042CB1C9B21C4403F8011BA342F6
:10035000FBD170BD64461346002CF4D1F9E7034687
:100360001446C0E7A446E1E7014B1868704700BF98
:1003700000000020844641EA000313F0030349D142
:10038000403A23D30B6803604B6843608B688360FB
:10039000CB68C3600B6903614B6943618B698361FF
:1003A000CB69C3610B6A03624B6A43628B6A8362E7
:1003B000CB6AC3620B6B03634B6B43638B6B8363CF
:1003C000CB6BC36340304031403ADBD230320BD389
:1003D0000B6803604B6843608B688360CB68C360C5
:1003E00010301031103AF3D20C3205D351F8043BDF
:1003F00040F8043B043AF9D2043208D0D2071CBFBB
:1004000011F8013B00F8013B01D30B8803806046E3
:10041000704700BF082A13D38B07B1D010F0030335
:10042000AED0C3F10403D21ADB071CBF11F8013BA5
:1004300000F8013BA4D331F8023B20F8023B9FE7D0
:10044000043AD9D3013A11F8013B00F8013BF9D243
:100450000B7803704B7843708B78837060467047DD
:100460000EB400B582B003AB53F8042B816801933E
:1004700000F056F802B05DF804EB03B0704700BF1F
:100480000FB400B5074A83B004AB106853F8042BCF
:100490008168019300F044F803B05DF804EB04B008
:1004A000704700BF000000209368013B002B936061
:1004B00005DAD2F818C0634507DB0A2905D01368AE
:1004C000581C106008461970704700F063B900BFEF
:1004D0009BB1F8B5134406460F46541E5D1E01E05D
:1004E000AC4208D03A46304614F8011FFFF7DCFF53
:1004F000431CF5D1F8BD0020F8BD0020704700BFB7
:10050000936810B514461BB918460023636010BDEC
:1005100000F08EF90023A3600023636010BD00BFCC
:100520002DE9F04FA1B08B4691461C46049018B1BE
:10053000036A002B00F01381BBF80C30180740F160
:100540008E80DBF81030002B00F08980002343F20E
:1005500020020D9399F800300127824E0794ADF8E0
:100560003920002B73D04D4603E015F8013F002BD6
:100570007FD0252BF9D1B5EB090A7DD12B78002B43
:1005800065D000234FF0FF320135CDE909230893F0
:100590000B938DF863301E9306E02546089B801B65
:1005A00007FA00F0034308932C46052214F8011BB8
:1005B000304601F029F9A1460028EED1089BD90662
:1005C00044BF20228DF863201A0748BF2B222978C8
:1005D00048BF8DF863202A2964D1079A1168043234
:1005E00000290792C0F296800B9169782E296FD06E
:1005F0005D4C0322204601F007F938B14022089BE8
:10060000001B8240134309F10109089319F8011BEB
:10061000062256488DF8381001F0F6F800287FD0F1
:10062000534B002B69D007A900915A460498514BAF
:1006300008A9AFF300800390039B013307D00D9B03
:10064000039A13440D9399F80030002B8BD1BBF81B
:100650000C305B060AD40D9821B0BDE8F08F5946E6
:10066000049800F0DDFD00283FF470AF4FF0FF303C
:10067000F2E7B5EB090AEAD009F1FF3805954546DE
:10068000DDF8108001E0A2453ED92C465A4640468E
:1006900015F8011FFFF708FF02340130A4EB09042D
:1006A000F1D1D4E7A1F13002092A88BFA9469DD82B
:1006B0000B9B00E00134217803EB830302EB43033F
:1006C000A1F13002092AF5D92E29A1460B938FD129
:1006D00099F801102A292DD1079B09F102001A6807
:1006E0000433002A0793B8BF4FF0FF3399F8021084
:1006F00009928146B8BF09937AE7079B073323F035
:100700000703083307939AE70D99059D51442B7809
:100710000D9134E7494243F002030B91089364E7DB
:1007200007A900915A460498124B08A900F09EFEB2
:10073000039081E70023A1F13002092A09F10109A0
:1007400009933FF655AF19F8011F03EB830302EB42
:100750004303A1F13002092AF5D9099348E700F0D3
:10076000C7FAE9E6784A0008804A0008844A000887
:1007700000000000D10400088C4600B586461346F0
:10078000034A714610685DF804EB6246FFF7C8BE85
:1007900000000020F8B506460D46144610B1036A65
:1007A000002B37D0A269A389A2601A0719D5236943
:1007B000BBB122686169D31AEDB299422F4620DDA0
:1007C0000133A1680139A160511C21601570626973
:1007D0009A420DD0A389DB0701D50A2D08D03846EF
:1007E000F8BD2146304600F01BFD38B92369E0E72B
:1007F0002146304600F02EFB0028F0D04FF0FF37A6
:10080000EDE72146304600F025FB0028F6D1012314
:100810002268D6E700F06CFAC4E700BF03460A4638
:10082000024908681946FFF7B5BF00BF0000002065
:100830009368002B00F0F0802DE9F04FB1F90CC067
:1008400090461CF0080F81460C4683B02BD00B69F4
:100850004BB31CF00207D8F8006032D04FF0000A0A
:100860005546D4F828B0216AAB4FC5B1BD422B46DE
:10087000524628BF3B464846D847002840F3C2802E
:10088000D8F8083082441B1A2D1AC8F80830002BFB
:1008900000F0AE80D4F828B0216A002DE6D1D6E968
:1008A00000A50836E1E72146484600F0B9FC0028DB
:1008B00040F0AD80B4F90CC0D8F800601CF002071D
:1008C000CCD11CF0010A63D157462368A1681846B1
:1008D0008B46002F58D01CF4007F00F0B180B94245
:1008E0000A4600F2DD801CF4906F2FD02169626906
:1008F0005D1A02EB420202EBD2726B1C52103B44B7
:10090000934292BF93469B461A461CF4806F00F0B8
:10091000E6801146484600F005FB002800F0F5800F
:100920002A4621690190FFF725FDA289019B22F447
:10093000906242F08002A2815819C4F814B0ABEB67
:1009400005053A46BB462361A56020603D46002769
:100950005146019200F0C4FBA1682368019AA1EB03
:100960000B011A44A1602260D8F80830AA445B1B2E
:10097000C8F80830002B3BD02368A16818468B4686
:10098000B4F90CC0002FA6D1D6E900A708369EE71F
:100990003846BB463D46002D40D0002845D03A465B
:1009A000D4E904C32068AA4228BF2A466045A1684A
:1009B00004D901EB030A524500F38280934272DCB2
:1009C0005A464846216AD4F828C0E047B0F1000AE8
:1009D00018DDB7EB0A070FD00120D8F80830D34450
:1009E000A3EB0A03A5EB0A05C8F80830002BD2D107
:1009F000002003B0BDE8F08F2146484600F02AFAF7
:100A00000028EAD0B4F90C3043F04003A3814FF042
:100A1000FF3003B0BDE8F08F0020704775683346A3
:100A20000836002DFAD0D3F800B02A460A215846DD
:100A300000F0EAFE002865D00130A0EB0B07AEE71E
:100A400022699A4214D36569BD4211D86FF0004300
:100A5000BB4228BF3B4693FBF5F3524605FB03F32D
:100A60004846A56A216AA847051ECBDD7F1B7BE7A8
:100A7000B94228BF39460D46184651462A4600F06D
:100A80002FFBA1682368491B2B44A1602360002928
:100A9000ECD12146484600F0DDF90028E6D0B1E768
:100AA000BB463A4652E75946019200F019FB019ABB
:100AB000A36892469B1AA36023681344236088E7C7
:100AC0005946524600F00CFB2368214653444846E1
:100AD000236000F0BFF900283FF47BAF92E748465F
:100AE00000F000FC034600287FF426AF4846216949
:100AF00000F098FA0C22B4F90C30C9F8002023F069
:100B0000800381E76A1C17464AE70C22B4F90C30CF
:100B1000C9F8002078E700BF00FCFF7F0020704785
:100B2000024A0349034800F059BB00BF50000020AF
:100B3000550E0008040000200C4B416810B5994286
:100B4000044601D000F086F9A168094B994202D011
:100B5000204600F07FF9E168064B994204D0204618
:100B6000BDE8104000F076B910BD00BFD4000020F1
:100B70003C010020A4010020002070472DE9F8432B
:100B800000250423294C2A490822C4F8381104F10D
:100B90005C002946DFF89C90DFF89C80274F284EA8
:100BA000C4E90335C4E90055C4E90555A560656687
:100BB000FFF78AFB234B0822294604F1C400636730
:100BC000C4E90849C4E90A87C4E91A55C4E91E55AD
:100BD00026632567C4F8CC50C4F88050FFF774FB37
:100BE000194B2946C4F8DC30082204F1680304F5E7
:100BF0009670C4F88830C4E92398C4E92576C4E91E
:100C00003455C4E93855C4F8D850C4F83451C4F840
:100C1000E850FFF759FB04F1D003C4E93D98C4E95B
:100C20003F76C4F8F030BDE8F88300BFD400002060
:100C3000210B0008E91800081119000851190008D3
:100C4000751900080900010012000200F8B5254BD3
:100C50000646D3F83831002B3CD0234FD7E9013476
:100C6000013B04D51DE05A1C04F1680419D0B4F905
:100C70000C50013B002DF6D11C4B08222946C4E93B
:100C80000155C4E90455E36065662560A56104F17A
:100C90005C00FFF719FBC4E90D55C4E91255204665
:100CA000F8BD3D680DB12F46D8E74FF4D6713046F8
:100CB00000F038F9044680B1042305602946254632
:100CC0000C304FF4D072A0606360FFF7FDFA3C6017
:100CD0002F46C3E7FFF752FFBFE70C2338603360AE
:100CE000DDE700BFD4000020500000200100FFFF1E
:100CF000036A03B17047044B044AD3F838310262E7
:100D0000002BF7D13AE700BFD4000020390B0008D0
:100D1000704700BF704700BF0020024A024900F040
:100D20005DBA00BF500000201D0B00080020024AE1
:100D3000024900F053BA00BF50000020790B0008B0
:100D4000F8B5B1F90C300C461E07074639D44A688D
:100D5000002A53DDE56A002D31D000223E683A605A
:100D600013F48052216A55D101233846A847451C07
:100D7000024663D0B4F90C30E56A216A580705D5FC
:100D80006368D21A636B0BB1236CD21A0023384606
:100D9000A847421C40D00022236962602360A389D7
:100DA000DB0400D56065616B3E6041B104F1440332
:100DB000994202D0384600F035F9002363630020E1
:100DC000F8BD0E69002EFAD09B0718BF00230D68EE
:100DD00008BF4B690E60AD1B8B600CE02B463246A2
:100DE000D4F828C03846216AE047B0F1000CA5EBE2
:100DF0000C05664406DD002DF0DCE0E70A6C002AF5
:100E0000A8DCDCE7B4F90C3043F040034FF0FF30CE
:100E1000A381F8BD626DB1E73968B4F90C301D29C2
:100E2000F2D80B4ACA40D507EED50022626022698B
:100E30002260DA04B7D50029B4D0B4E73B68002BB0
:100E400098D01D2B01D0162BDCD13E60B7E700BF38
:100E5000010040200B69B3B110B5044682B008B15F
:100E6000036A5BB1B1F90C3013B9002002B010BDB8
:100E7000204602B0BDE81040FFF762BF0191FFF7C6
:100E800037FF0199EEE70020704700BFB8B138B5D1
:100E90000D4A0369044615682BB10DB12B6A53B195
:100EA000B4F90C300BB9002038BD21462846BDE806
:100EB0003840FFF745BF2846FFF71AFFF0E7034A1F
:100EC0000349044800F08AB90000002050000020C7
:100ED000550E00080400002070B5114E0546336819
:100EE0000C46BBB12146284600F0ECFC431C0146F1
:100EF0000CD0C41C24F00304A04205D02846611A7B
:100F000000F0E0FC013001D0204670BD4FF0FF340E
:100F1000204670BD194600F0D5FC3060E2E700BF06
:100F2000100200202DE9F843CD1C25F003050835FB
:100F30000C2D38BF0C25002D064618DBA94216D80B
:100F4000DFF8DC8000F0D4FBD8F80420A2B114460E
:100F500003E0636822467BB11C4623685B1BF8D420
:100F60000B2B1FD89442636854D053600CE00C23C1
:100F700033600020BDE8F88329463046FFF7ACFF18
:100F8000431C044619D00560304600F0B3FB04F161
:100F90000B00231D20F00700C21A1CBF1B1AA35010
:100FA000BDE8F88361199442256014BF5160C8F808
:100FB0000410635163684B60E6E7D8F804701FB310
:100FC0003C467F68002FFBD123683946304604EB4E
:100FD000030900F077FC814516D123683046ED1AED
:100FE0002946FFF779FF01300ED02368D8F8042096
:100FF0002B442360536883B1A34203D01A465B6835
:101000009C42FBD10023B0E70C233046336000F054
:1010100071FBAEE7C8F80430B6E7C8F80470B3E770
:1010200010020020002950D038B551F8043C0C1FA4
:10103000002BB8BFE418054600F05AFB274A136896
:101040002BB1A3420CD92168601883422CD02846CA
:1010500063601460BDE8384000F04CBBA3420FD879
:101060001A465B68002BF9D111685018844217D0DA
:101070002CD3636054602846BDE8384000F03ABB8A
:1010800011685018A04214D020D8216860188342FB
:10109000EFD118685B680844C4E900035460EAE7CC
:1010A00023680B441360E6E718685B680844206017
:1010B000CDE720680144501883421160DBD1D3E9A9
:1010C00000040144C2E90014D5E770470C23284608
:1010D0002B60BDE8384000F00DBB00BF14020020BB
:1010E00088420ED98B1883420BD900EB020C002AE0
:1010F0006DD0624613F801CD994202F801CDF9D1C5
:1011000070470F2A0FD8034602F1FF3C002A5ED039
:101110000CF1010C013B8C4411F8012B614503F8E3
:10112000012FF9D1704740EA01039B0750D1A2F18A
:10113000100370B501F1200C23F00F0501F1100E22
:1011400000F11004AC441B095EF8105C0EF1100EA7
:1011500044F8105C5EF81C5C103444F81C5C5EF8CB
:10116000185C44F8185C5EF8145CE64544F8145CBE
:10117000EAD1013312F00C0F01EB031102F00F045E
:1011800000EB031328D08E46043C24F003064FEAFC
:10119000940C1E441C1F5EF8045B44F8045FB442C8
:1011A000F9D10CF1010402F0030203EB840301EB1B
:1011B000840102F1FF3C4AB10CF1010C013B8C446B
:1011C00011F8012B614503F8012FF9D170BD70476B
:1011D000034602F1FF3C9BE72246EAE72DE9F8438C
:1011E0004FF0000980460F461646D6E90154013DEE
:1011F00010D4A389012B08D9B4F90E30013304D0DF
:1012000021464046B84749EA0009013D6B1C04F1FC
:101210006804EED13668002EE7D14846BDE8F88371
:1012200038B52F4B05461B680C4613B11A6A002AC5
:101230004BD0B4F90C3018071CD5226922B313F037
:10124000010107D000206169A0604942A1613AB163
:10125000002038BD980758BF6169A160002AF7D106
:10126000190658BF1046F4D543F04003A3814FF050
:10127000FF3038BDD9062CD55A0712D4226943F065
:101280000803A381002ADAD103F42071B1F5007FAD
:10129000D5D02146284600F02FFAB4F90C30226947
:1012A000CDE7616B51B104F14402914204D028466C
:1012B000FFF7B8FEB4F90C30002262630021226906
:1012C00023F02403C4E90021D9E71846FFF710FDF5
:1012D000AFE7092243F040032A60A381C7E700BFBC
:1012E000000000202DE9F041144641B30AB3064640
:1012F0000D4600F043FB8442074602D8B4EB500F82
:1013000013D821463046FFF70DFE804650B1BC424F
:101310002246294628BF3A46FFF72CF82946304690
:10132000FFF780FE4046BDE8F081A8464046BDE894
:10133000F081A046FFF776FE4046BDE8F0811146F9
:10134000BDE8F041FFF7EEBD2DE9F84F92461F468C
:101350000A698B680C469A42B8BF1A46CAF8002040
:1013600091F843300646DDF8289013B10132CAF8EF
:101370000020226891065FD5DAF800300233CAF8FF
:101380000030226812F0060F11461DD1E168994223
:10139000D8BF114618DD4FF0000804F1190B05E025
:1013A000E568DAF80030ED1A45450CDD01235A46B0
:1013B00039463046C847013008F10108F0D14FF0F6
:1013C000FF30BDE8F88F216894F84330003B18BF28
:1013D00001238A060AD53021E21882F8431094F8D6
:1013E00045105A1C2244023382F8431039463046D5
:1013F00004F14302C8470130E1D0D4E90220236858
:10140000DAF8005003F00603042B21691BD08A424E
:1014100020DD4FF00008521A904400251A3401E0F4
:10142000454517DA0123224639463046C847013080
:1014300005F10105F4D1C2E712F0060F0DD0003B13
:1014400018BF0123D2E7401B8A4220EAE078E2DCA1
:101450000028E2DC0020BDE8F88FE168DAF800300F
:101460009942D8BF114696DCAEE700BF2DE9F047A0
:1014700017460A7E84B00C46064698460C9D01F13C
:10148000430C002A35D0A2F15803D9B2202969D8DB
:10149000202B67D8DFE813F0E600660066006600E0
:1014A0006600660066006600660066006600AC00C6
:1014B00070006600660066006600700066006600E8
:1014C0006600660021008300C60066006600B60064
:1014D0006600830066006600EC002B682268181D19
:1014E0006169286010061B6802D4520600F1E08092
:1014F00019600023E14623613B4621463046CDF882
:10150000008003AAFFF720FF013020D04A46394669
:1015100030462369C047013019D02368E0689B0733
:10152000DDF80C9018D5484516DD002504F1190AA0
:1015300004E0E068A0EB0903AB420DDD0123524655
:1015400039463046C047013005F10105F1D14FF071
:10155000FF3004B0BDE8F0874845B8BF484604B046
:10156000BDE8F087012084F8422004F142090023FD
:10157000206184F84330BFE72A682368111D1806EC
:10158000296002D4590600F19580106801460028B0
:101590006268C0F293804FF00A0E534815E020684D
:1015A0002B6810F0800F53F8041B02D1400648BF8F
:1015B00089B26F2A14BF4FF00A0E4FF0080E4A4846
:1015C0002B600023626884F84330002AA26051DB5C
:1015D000236823F00403236000294BD1002A7BD128
:1015E000E146BEF1080F56D0ACEB0903236183E757
:1015F0002A680120116804322A6004F1420984F843
:101600004210B4E72B6800211A1D2A60D3F800901D
:101610006268484600F0F8F8002863D0A0EB0900A3
:101620006060A4E7236843F02003236078222F48FA
:1016300084F845202A6813F0800F52F8041B03D168
:1016400013F0400F18BF89B22A60DA0744BF43F095
:101650002003236019B9236823F0200323604FF08F
:10166000100EAEE75823204884F845302368E1E7A0
:101670002368DBE77546E146B1FBF5F30A4605FB57
:10168000131A194610F80A30AA4209F8013DF3D29C
:10169000BEF1080FA8D12368DD07A5D562682369CC
:1016A0009A42A1DC302309F1FF3989F800309BE729
:1016B00019801EE7B2F90010084668E72D20002ABD
:1016C000A26084F8430002DB23F0040323600A25B0
:1016D0000548AE464942CEE7037804F1420984F852
:1016E00042307EE7606842E78C4A0008A04A000862
:1016F000704700BF704700BF70B5B1F90C300C46A1
:10170000990796B007D5012204F14703C4E90432D2
:10171000236016B070BDB4F90E100546002929DB10
:101720006A4600F05BF9002822DB4FF4806128460E
:10173000019EFFF7F7FB88B3A38906F4704643F0D8
:101740008003A3814FF48063B6F5005FC4E904030E
:101750002060DED12846B4F90E1000F0A1F8002870
:10176000D7D0A38923F0030343F00103A381D0E77B
:10177000B4F90C3013F0800F14BF40264FF480668C
:1017800028463146FFF7CEFB40B1A389C4E90406E1
:1017900043F080032060A38116B070BDB4F90C3013
:1017A0009A05B6D4012123F0030304F1470243F064
:1017B0000203C4E90421A3812260AAE770B50C46A4
:1017C000B1F90E10154600291E4696B00FDB6A4689
:1017D00000F004F900280ADB019B4FF4806203F457
:1017E0007043A3F50053B3FA83F35B0907E0A289C2
:1017F000002312F0800F14BF40224FF480620020BB
:1018000033602A6016B070BD5FFA81FC810744D056
:101810000346511E22B909E09A0709D0013905D3C0
:101820001846027801336245F6D1704700207047B0
:10183000184603290CD80029F8D00346014401E0DA
:101840008B42F3D0184613F8012B6245F8D170474C
:1018500010B50CEB0C24024604EB044402E00439FE
:10186000032915D9104652F8043B6340A3F1013E09
:101870002EEA030313F0803FF1D00346014401E058
:101880008B4208D0184613F8012B6245F8D110BDE1
:1018900010460029F1D1002010BD1146C9E700BF54
:1018A000002238B5064D044608462A6001F068FE5D
:1018B000431C00D038BD2B68002BFBD0236038BD03
:1018C00018020020002238B5064D044608462A605A
:1018D00001F00CFE431C00D038BD2B68002BFBD060
:1018E000236038BD1802002010B50C46B1F90E1067
:1018F00000F05EF8002803DB636D0344636510BDF0
:10190000A38923F48053A38110BD00BF002070473A
:101910002DE9F0410C46B1F90C101F46CB050546E8
:1019200016460BD421F48051A1813B46324628460D
:10193000B4F90E10BDE8F04100F07AB8B4F90E1019
:101940000223002200F05EF8B4F90C10EAE700BFB1
:1019500010B50C46B1F90E1000F054F8B4F90C3083
:10196000421C0EBF23F4805343F480536065A3816F
:1019700010BD00BFB1F90E1000F008B851F8043CDA
:10198000181F002BBCBF0B58C0187047002238B579
:10199000064D044608462A6001F0EAFD431C00D0CB
:1019A00038BD2B68002BFBD0236038BD1802002007
:1019B00038B50C46114600228446074D20462A6061
:1019C0001A46644601F0B6FD431C00D038BD2B68B2
:1019D000002BFBD0236038BD1802002070B5002614
:1019E000074D0446084611462E6001F0C4FD431C15
:1019F00000D070BD2B68002BFBD0236070BD00BFF2
:101A00001802002038B50C46114600228446074DC6
:101A100020462A601A46644601F0B4FD431C00D0FB
:101A200038BD2B68002BFBD0236038BD1802002086
:101A300038B50C46114600228446074D20462A60E0
:101A40001A46644601F086FD431C00D038BD2B6861
:101A5000002BFBD0236038BD1802002008B50368B6
:101A6000B3F1804F00D008BD00F0B2FDFBE772B6C5
:101A7000FEE700B591B02822002106A8FEF724FC5D
:101A8000002301930293039304930593012206928A
:101A90004FF4803307930A9202220D920E934FF473
:101AA000E0130F9306A800F0CFFD78B90F23019340
:101AB000022102918023039300230493059301A83C
:101AC00000F0F4FF20B911B05DF804FBFFF7CFFF81
:101AD000FFF7CDFF08B500F069FDFFF7CAFF00F082
:101AE00013F800F0BDF800F05FF802F0AFFE02F06E
:101AF0002FFE0121034801F0F5F94FF47A7000F050
:101B000079FDF4E7000C01402DE9F04188B0002494
:101B10000494059406940794204B9A6942F00802B5
:101B20009A619A6902F008020192019A9A6942F454
:101B300080729A619A6902F480720292029A9A699A
:101B400042F004029A619B6903F004030393039B30
:101B5000DFF84C8001220321404601F0BDF9114D10
:101B600022464FF40341284601F0B6F903230493BB
:101B70000127059706940226079604A9404601F01E
:101B80008FF84FF40343049305970694079604A92E
:101B9000284601F085F808B0BDE8F0810010024049
:101BA000000C01400020014008B50D480D4B0360BA
:101BB0004FF48273436000238360C3600361436119
:101BC0004FF400728261C3610362436283620A233D
:101BD000C36200F0D3F900B908BDFFF748FFFBE787
:101BE0001C0200200038004010B586B0002302938C
:101BF0000393049305930268174B9A4201D006B0F1
:101C000010BD03F5EC33DA6942F48042DA61DA6937
:101C100002F480420092009A9A6942F008029A61A6
:101C20009B6903F008030193019B4FF42043029347
:101C30000223039303230593084C02A9204601F0D5
:101C40002FF84FF48043029300230393049302A9D7
:101C5000204601F025F8D2E700380040000C014092
:101C600008B50A480A4B03604FF4E1334360002390
:101C70008360C36003610C2242618361C36101F030
:101C8000A5FB00B908BDFFF7F2FEFBE774020020D8
:101C90000038014010B586B00023029303930493EB
:101CA00005930268174B9A4201D006B010BD03F5A8
:101CB00058439A6942F480429A619A6902F48042D8
:101CC0000092009A9A6942F004029A619B6903F0BB
:101CD00004030193019B4FF40073029302230393C7
:101CE00003230593084C02A9204600F0D9FF4FF4C6
:101CF0008063029300230393049302A9204600F01B
:101D0000CFFFD2E70038014000080140FEE7FEE7C0
:101D1000FEE7FEE7FEE7704708B5024801F092F9DA
:101D200008BD00BFBC02002000B583B0114B9A690A
:101D300042F001029A619A6902F001020092009A4F
:101D4000DA6942F08052DA61DB6903F08053019373
:101D5000019B00220F216FF0010001F013F9064AE8
:101D6000536823F0E06343F00073536003B05DF801
:101D700004FB00BF001002400000014030B589B0F4
:101D80000446224BDA6942F00102DA61DB6903F0B2
:101D900001030193019B02A903A800F063FF069BC6
:101DA000D3B900F03FFF0346194AA2FB03239B0C63
:101DB000013B18484FF08042026040F2E732C260B7
:101DC0004360002303618360836101F045FA0546A7
:101DD00030B1284609B030BD00F024FF4300E3E7EE
:101DE0000C4801F0EFF805460028F2D11C2001F064
:101DF000D9F80F2C01D90125EBE7002221461C2040
:101E000001F0C0F8044B1C60E3E700BF0010024083
:101E100083DE1B43BC020020600000202DE9F04758
:101E200082B00546884617461E4600F0DDFB0A9B39
:101E30001B1A03EB060900F0D7FB8246284B1B68F0
:101E4000C3F3CB3309FB03F301932B689C6838EA97
:101E500004040CBF01230023BB423DD0B6F1FF3F79
:101E6000F3D000F0C1FBA0EB0A00484507D2019A6D
:101E700002B14A46019B013B01939146E5E72A687E
:101E8000536823F0E00353606B68B3F5827F0BD097
:101E9000AB6AB3F5005F14D0012385F851300023FD
:101EA00085F85030032018E0AB68B3F5004F02D03E
:101EB000B3F5806FECD12A68136823F040031360F8
:101EC000E6E72A68136823F4005313602A6813684E
:101ED00043F400531360DFE7002002B0BDE8F08751
:101EE0006400002010B582B004460B460092002228
:101EF0008021FFF793FF08B902B010BD636D43F076
:101F0000200363650320F7E710B582B004460B4653
:101F10004168B1F5827F10D06168B1F5827F03D14D
:101F2000A168B1F5806F15D0009200228021204673
:101F3000FFF774FFE0B902B010BD8168B1F5004F42
:101F400002D0B1F5806FE7D12068016821F040012F
:101F50000160E1E70092002201212046FFF75EFFC9
:101F60000028E8D0636D43F0200363650320E2E7B7
:101F7000636D43F0200363650320DCE7002856D03F
:101F800010B50446436A33B94368B3F5827F05D080
:101F90000023C36102E00023036143610023A362C5
:101FA00094F85130002B3CD0022384F85130226841
:101FB000136823F040031360636803F48273A2681C
:101FC00002F404421343E26802F4006213432269FC
:101FD00002F002021343626902F001021343A26994
:101FE00002F400721343E26902F038021343226ADA
:101FF00002F080021343A26A02F4005221681343E4
:102000000B60638B226803F0040353602268D3697A
:1020100023F40063D36100206065012384F851300C
:1020200010BD84F850302046FFF7DEFDBCE70120EC
:1020300070472DE9F04383B01D4690F85030012BD6
:1020400000F0D180044688469146012380F8503044
:1020500000F0CAFA074694F85160F6B2012E40F03B
:10206000BA80B8F1000F00F0B780B9F1000F00F0AE
:10207000B380032384F8513000236365C4F83080B3
:10208000A4F83490A4F83690A363A387E38763642D
:102090002364A368B3F5004F1ED023681A6812F0BA
:1020A000400F03D11A6842F040021A60E368B3F5AA
:1020B000006F1CD0636813B1B9F1010F55D1226BC9
:1020C000236812781A73236B01332363E38E9BB268
:1020D000013B9BB2E38648E02268136823F040038B
:1020E00013602268136843F480431360D5E7636884
:1020F00013B1B9F1010F15D1226B23681288DA6090
:10210000236B02332363E38E9BB2013B9BB2E386D6
:1021100008E000F069FAC01BA84202D3B5F1FF3F06
:1021200015D1A5B1E38E9BB2002B3CD023689A68F1
:1021300012F0020FEDD0226B1288DA60236B0233AB
:102140002363E38E9BB2013B9BB2E386EAE7012364
:1021500084F8513003263FE000F046FAC01BA84245
:1021600002D3B5F1FF3F19D1C5B1E38E9BB2D3B114
:1021700023689A6812F0020FEED0226B12781A735D
:10218000236B01332363B4F836C01FFA8CFC0CF1C7
:10219000FF3C1FFA8CFCA4F836C0E6E7012384F864
:1021A0005130032618E03A4629462046FFF79AFEAA
:1021B00008B120236365A36833B901932368DA6803
:1021C00001929B680193019B636D2BB9012384F8F5
:1021D0005130002600E00226002384F850303046BB
:1021E00003B0BDE8F0830226F9E72DE9F04383B0A0
:1021F0001F460A9D90F85030012B00F016810446CE
:1022000088469146012380F8503000F0EDF90646EB
:1022100094F85130DBB26268012B0AD0B2F5827FAC
:1022200040F0F080A268002A40F0F380042B40F0D8
:10223000F280B8F1000F00F0F080B9F1000F00F06B
:10224000EE80002F00F0ED8094F85130DBB2042BCB
:1022500002D0052384F8513000236365C4F8389018
:10226000E787A787C4F83080E786A786236463647E
:1022700023681A6812F0400F03D11A6842F0400236
:102280001A60E368B3F5006F11D063680BB1012FDA
:102290000BD1226B236812781A73236B01332363EB
:1022A000E38E9BB2013B9BB2E38601276EE063683D
:1022B0000BB1012F0BD1226B23681288DA60236BDC
:1022C00002332363E38E9BB2013B9BB2E38601277B
:1022D0001BE023689A6812F0010F0ED0E28F92B2D1
:1022E0005AB1DA68A36B1A80A36B0233A363E38F3E
:1022F0009BB2013B9BB2E387012700F075F9801B7D
:10230000A84202D3B5F1FF3F1ED1E38E9BB21BB9A9
:10231000E38F9BB2002B5CD023689A6812F0020F07
:10232000D7D0E28E92B2002AD3D0002FD1D0226B28
:102330001288DA60236B02332363E38E9BB2013B86
:102340009BB2E3860027C4E7012384F851300320C1
:1023500059E023689A6812F0010F0ED0E28F92B212
:102360005AB1DA68A36B1A70A36B0133A363E38FCE
:102370009BB2013B9BB2E387012700F035F9831B39
:10238000AB4202D3B5F1FF3F1ED1EDB1E38E9BB25C
:1023900013B9E38F9BB2E3B123689A6812F0020F7E
:1023A000D7D0E28E92B2002AD3D0002FD1D0226BA8
:1023B00012781A73236B01332363E38E9BB2013BC4
:1023C0009BB2E3860027C4E7012384F85130032041
:1023D00019E0324629462046FFF784FD70B9A3680C
:1023E00033B901932368DA6801929B680193019BDA
:1023F000636DC3B9012384F8513004E02023636581
:10240000012000E00220002384F8503003B0BDE832
:10241000F0830220F7E70220F5E70120F3E701202F
:10242000F1E70120EFE70120EDE70220EEE72DE9DB
:10243000F04383B0044690F85160F6B2012E40F0AC
:10244000AB80884691461D464368B3F5827F32D003
:1024500094F85030012B00F0A780012384F850300D
:1024600000F0C2F80746B8F1000F00F09680B9F10D
:10247000000F00F09280042384F85130002363653C
:10248000C4F83880A4F83C90A4F83E902363A38657
:10249000E38623646364A368B3F5004F18D0236810
:1024A0001A6812F0400F03D11A6842F040021A6015
:1024B000E3680BB343E08368002BC9D1042380F8A1
:1024C0005130009513460A46FFF78FFE064667E037
:1024D0002268136823F0400313602268136823F412
:1024E00080431360DBE700F07FF8C01BA84202D3F3
:1024F000B5F1FF3F15D1A5B1E38F9BB2002B3CD0C6
:1025000023689A6812F0010FEDD0A26B1B7B137049
:10251000A36B0133A363E38F9BB2013B9BB2E387C1
:10252000EAE7012384F85130032636E000F05CF836
:10253000C01BA84202D3B5F1FF3F19D1C5B1E38F4B
:102540009BB2D3B123689A6812F0010FEED0DA681B
:10255000A36B1A80A36B0233A363B4F83EC01FFAC7
:102560008CFC0CF1FF3C1FFA8CFCA4F83EC0E6E7A3
:10257000012384F8513003260FE03A4629462046CD
:10258000FFF7C2FC08B120236365636D2BB90123FB
:1025900084F85130002600E00226002384F85030F1
:1025A000304603B0BDE8F0830226F9E708B5074AD4
:1025B000136843F010031360032000F0D1FC0F20D8
:1025C000FFF7DCFBFFF7B0FB002008BD0020024056
:1025D000034A1168034B1B780B441360704700BF1C
:1025E000040300205C000020014B1868704700BF06
:1025F0000403002038B50446FFF7F6FF0546B4F1A2
:10260000FF3F02D0044B1B781C44FFF7EDFF401B3B
:10261000A042FAD338BD00BF5C00002082B0084B56
:102620001B68084AA2FB03235B0A00FB03F3019328
:1026300000BF019B5A1E0192002BF9D102B07047D6
:1026400064000020D34D6210002800F0F18170B5C5
:1026500082B00446036813F0010F2CD0994B5B68DD
:1026600003F00C03042B1DD0964B5B6803F00C03A6
:10267000082B12D06368B3F5803F41D0002B55D1B1
:1026800003F1804303F504331A6822F480321A60A0
:102690001A6822F480221A6037E08A4B5B6813F4D0
:1026A000803FE7D0874B1B6813F4003F03D063687B
:1026B000002B00F0BF81236813F0020F75D0814B0F
:1026C0005B6813F00C0F5FD07E4B5B6803F00C036C
:1026D000082B54D02369002B00F08A807A4B01220A
:1026E0001A60FFF781FF0546764B1B6813F0020F57
:1026F00075D1FFF779FF401B0228F5D903209EE131
:10270000704A136843F480331360636843B3FFF780
:102710006BFF05466B4B1B6813F4003FCBD1FFF7F3
:1027200063FF401B6428F5D9032088E1B3F5A02F8F
:1027300009D0644B1A6822F480321A601A6822F4B5
:1027400080221A60E1E703F18043A3F53C331A6865
:1027500042F480221A601A6842F480321A60D4E788
:10276000FFF742FF0546574B1B6813F4003FA2D00A
:10277000FFF73AFF401B6428F5D903205FE1514B76
:102780005B6813F4803FA5D14E4B1B6813F0020F1A
:1027900003D02369012B40F04F814A4A136823F08C
:1027A000F803616943EAC1031360236813F0080F5B
:1027B00033D0A369002B5CD0434B0122C3F88024A3
:1027C000FFF712FF05463F4B5B6A13F0020F21D162
:1027D000FFF70AFF401B0228F5D903202FE1394AF1
:1027E000136823F0F803616943EAC1031360DCE76F
:1027F000354B00221A60FFF7F7FE0546314B1B6888
:1028000013F0020FD1D0FFF7EFFE401B0228F5D9DD
:10281000032014E10120FFF701FF236813F0040FE8
:1028200000F09680274BDB6913F0805F34D1254B95
:10283000DA6942F08052DA61DB6903F08053019378
:10284000019B0125214B1B6813F4807F26D0E36890
:10285000012B3DD0002B53D103F1804303F504330A
:102860001A6A22F001021A621A6A22F004021A623B
:1028700033E0154B0022C3F88024FFF7B5FE054670
:10288000104B5B6A13F0020FC7D0FFF7ADFE401B81
:102890000228F5D90320D2E00025D3E70B4A1368BC
:1028A00043F480731360FFF79FFE0646074B1B68D7
:1028B00013F4807FCBD1FFF797FE801B6428F5D9F6
:1028C0000320BCE0001002400000424200700040C3
:1028D0005F4A136A43F001031362E36833B3FFF7FF
:1028E00083FE06465A4B1B6A13F0020F2FD1FFF7E7
:1028F0007BFE801B41F288339842F3D903209EE08F
:10290000052B09D0524B1A6A22F001021A621A6A88
:1029100022F004021A62E0E74D4B1A6A42F0040208
:102920001A621A6A42F001021A62D6E7FFF75CFEE9
:102930000646474B1B6A13F0020F08D0FFF754FE00
:10294000801B41F288339842F3D9032077E0E5B940
:10295000E369002B72D03E4A526802F00C02082A4A
:1029600056D0022B17D03B4B00221A66FFF73CFED5
:102970000446374B1B6813F0007F47D0FFF734FE47
:10298000001B0228F5D9032059E0314AD36923F00E
:102990008053D361DCE72F4B00221A66FFF724FE39
:1029A00005462B4B1B6813F0007F06D0FFF71CFE7B
:1029B000401B0228F5D9032041E0236AB3F5803F8C
:1029C0001AD023494B6823F47413226A606A0243C5
:1029D00013434B601F4B01221A66FFF705FE0446A6
:1029E0001B4B1B6813F0007F0ED1FFF7FDFD001B92
:1029F0000228F5D9032022E0154A536823F4003356
:102A0000A1680B435360DCE7002018E0002016E0CB
:102A1000012B16D00E4B5B6803F48031226A914281
:102A200011D103F47013626A93420ED1002006E0C4
:102A300001207047012002E0012000E0002002B0E8
:102A400070BD0120FBE70120F9E70120F7E700BF97
:102A500000100240000042420F4B5B6803F00C0282
:102A6000082A01D00D487047C3F383420C49885CA3
:102A700013F4803F0BD0084B5B68C3F34043094A13
:102A8000D35C064A02FB00F0B0FBF3F07047064B44
:102A900003FB00F0704700BF0010024000127A00F4
:102AA0007C4900087849000800093D00002800F032
:102AB000A08070B50D460446524B1B6803F0070317
:102AC0008B420BD24F4A136823F007030B4313606A
:102AD000136803F007038B4240F08D80236813F0E6
:102AE000020F17D013F0040F04D0474A536843F481
:102AF000E0635360236813F0080F04D0424A536820
:102B000043F460535360404A536823F0F003A168D4
:102B10000B435360236813F0010F31D06368012B1E
:102B200020D0022B25D0384A126812F0020F64D050
:102B300035494A6822F0030213434B60FFF754FD06
:102B40000646314B5B6803F00C036268B3EB820FFF
:102B500016D0FFF749FD801B41F288339842F0D927
:102B6000032045E0284A126812F4003FE0D101201A
:102B70003EE0254A126812F0007FD9D1012037E0EB
:102B8000204B1B6803F00703AB420AD91D4A1368A8
:102B900023F007032B431360136803F00703AB42D2
:102BA0002DD1236813F0040F06D0174A536823F47D
:102BB000E063E1680B435360236813F0080F07D00C
:102BC000114A536823F46053216943EAC1035360F7
:102BD000FFF742FF0C4B5B68C3F303130B4AD35C54
:102BE000D8400B4B18600B4B1868FFF7C7F8002054
:102BF00070BD012070470120FAE70120F8E70120AD
:102C0000F6E700BF0020024000100240944900088F
:102C10006400002060000020014B1868704700BF6E
:102C20006400002008B5FFF7F7FF044B5B68C3F3AF
:102C30000223034AD35CD84008BD00BF0010024005
:102C40008C49000808B5FFF7E7FF044B5B68C3F346
:102C5000C223034AD35CD84008BD00BF0010024025
:102C60008C4900080F2303600B4B5A6802F00302E3
:102C700042605A6802F0F00282605A6802F4E06230
:102C8000C2605B68DB0803F4E0630361034B1B680D
:102C900003F007030B607047001002400020024061
:102CA00070B582B00024A446ABE0854DAB4214D091
:102CB0000CD8A5F58015AB420FD005F57025AB42B9
:102CC0000BD0A5F58015AB4210D106E07D4DAB428F
:102CD00003D005F58035AB4208D18B68002B5AD064
:102CE000012B53D04261082400E0CC68BEF1FF0FF5
:102CF00053D806464FEA8C0233680F25954023EAE5
:102D0000050304FA02F2134333604B6813F0805F4B
:102D100075D06D4B9A6942F001029A619B6903F08C
:102D200001030193019B4FEA9C02951C674B53F8EA
:102D300025600CF00305AD000F23AB4026EA030627
:102D4000634B984230D003F58063984200F0968040
:102D500003F58063984200F0938003F58063984206
:102D600000F0908003F58063984200F08D8003F5B9
:102D70008063984216D0062317E0CC680434B5E788
:102D8000CC680834B2E7CC680C34AFE702610824A1
:102D9000ACE70024AAE70424A8E7061DACF108026A
:102DA0009200A9E7052300E00023AB403343023241
:102DB000464D45F822304B6813F4801F66D0454AD3
:102DC000936843EA0E0393604B6813F4001F63D0CB
:102DD000404AD36843EA0E03D3604B6813F4003FC4
:102DE00060D03C4A536843EA0E0353604B6813F4C7
:102DF000803F5DD0374A136843EA0E0313600CF13D
:102E0000010C0B6833FA0CF258D0012202FA0CF2D2
:102E100003EA020E32EA0303F1D14B68122B3FF6AC
:102E200044AF122B3FF662AF01A555F823F000BF67
:102E3000DB2C0008EB2C0008812D0008932D0008E6
:102E4000ED2C0008ED2C0008ED2C0008ED2C0008FE
:102E5000ED2C0008ED2C0008ED2C0008ED2C0008EE
:102E6000ED2C0008ED2C0008ED2C0008ED2C0008DE
:102E7000ED2C00087B2D0008872D0008012394E726
:102E8000022392E7032390E704238EE7114A936815
:102E900023EA0E03936097E70E4AD36823EA0E03F2
:102EA000D3609AE70B4A536823EA0E0353609DE709
:102EB000084A136823EA0E031360A0E702B070BD4E
:102EC00000002210000031100010024000000140FC
:102ED00000080140000401400AB101617047090483
:102EE00001617047C36801EA030221EA030141EA74
:102EF0000241016170470000002808DB0901C9B2E6
:102F000000F1604000F5614080F80013704700F068
:102F10000F000901C9B2014B1954704714ED00E0CC
:102F200000B500F00700C0F1070CBCF1040F28BF8A
:102F30004FF0040C031D062B0FD9C31E4FF0FF3EAC
:102F40000EFA0CF021EA000199400EFA03FE22EA83
:102F50000E0241EA02005DF804FB0023EEE70000E8
:102F6000074AD36823F4E0631B041B0C000200F43F
:102F7000E060034343F0BF6343F40033D360704722
:102F800000ED00E010B50446054BD868C0F3022000
:102F9000FFF7C6FF01462046FFF7AEFF10BD00BF9A
:102FA00000ED00E0002807DB00F01F0240090123CC
:102FB0009340024A42F82030704700BF00E100E031
:102FC0007047000090F83D30DBB2012B2FD1022377
:102FD00080F83D300268D36843F00103D360036892
:102FE000154A934218D002F50062934214D0B3F10F
:102FF000804F11D0A2F5983293420DD002F5806235
:10300000934209D002F58062934205D01A6842F0DB
:1030100001021A60002070479A6802F00702062A2F
:1030200007D01A6842F001021A60002070470120A0
:1030300070470020704700BF002C01407047704768
:103040007047704710B5044603681A6912F0020F02
:1030500011D0DA6812F0020F0DD06FF002021A617F
:103060000123037703689B6913F0030F70D0FFF708
:10307000E6FF0023237723681A6912F0040F12D0A9
:10308000DA6812F0040F0ED06FF004021A61022306
:10309000237723689B6913F4407F5FD02046FFF7B6
:1030A000CEFF0023237723681A6912F0080F12D08D
:1030B000DA6812F0080F0ED06FF008021A610423CC
:1030C00023772368DB6913F0030F4ED02046FFF708
:1030D000B6FF0023237723681A6912F0100F12D06D
:1030E000DA6812F0100F0ED06FF010021A61082388
:1030F00023772368DB6913F4407F3DD02046FFF738
:103100009EFF0023237723681A6912F0010F03D072
:10311000DA6812F0010F36D123681A6912F0800FB5
:1031200003D0DA6812F0800F34D123681A6912F0E4
:10313000400F03D0DA6812F0400F32D123681A69C9
:1031400012F0200F03D0DA6812F0200F30D110BD3A
:10315000FFF774FF2046FFF773FF8AE72046FFF76B
:103160006DFF2046FFF76CFF9BE72046FFF766FFE9
:103170002046FFF765FFACE72046FFF75FFF2046DC
:10318000FFF75EFFBDE76FF001021A612046FEF710
:1031900065FCC1E76FF080021A61204600F089F8F3
:1031A000C3E76FF040021A612046FFF74AFFC5E708
:1031B0006FF020021A61204600F07AF8C7E700009D
:1031C0000368244A904212D002F5006290420ED069
:1031D000B0F1804F0BD0A2F59832904207D002F5A3
:1031E0008062904203D002F58062904203D123F0C6
:1031F00070034A681343174A904212D002F50062E6
:1032000090420ED0B0F1804F0BD0A2F59832904290
:1032100007D002F58062904203D002F580629042AE
:1032200003D123F44073CA68134323F080034A692F
:10323000134303608B68C3620B688362054B98423B
:1032400003D003F50063984201D10B6903630123A6
:1032500043617047002C014040B310B5044690F81C
:103260003D30F3B1022384F83D30214651F8040B80
:10327000FFF7A6FF012384F8463084F83E3084F837
:103280003F3084F8403084F8413084F8423084F88C
:10329000433084F8443084F8453084F83D300020D1
:1032A00010BD80F83C30FFF78BFEDBE70120704754
:1032B0007047704710B504460268136923F4405301
:1032C000C1680B43136183680269134342691A435F
:1032D0000168CB6823F4B05323F00C031343CB6095
:1032E0000268536923F4407381690B435361026898
:1032F000134B9A4220D0FFF795FC024602EB820264
:1033000002EB820263689B00B2FBF3F20D48A0FB64
:1033100002314909642303FB11231B013233A0FB53
:1033200003035B0903F0F00202EB011203F00F0349
:10333000216813448B6010BDFFF784FC0246DDE773
:10334000003801401F85EB512DE9F84305460F4633
:1033500016469946DDF820802B681C6837EA04047D
:103360000CBF01240024B4422DD1B8F1FF3FF3D0AB
:10337000B8F1000F05D0FFF737F9A0EB0900404581
:10338000EAD92A6802F10C0353E8003F23F4D07312
:103390000C3242E800310029F3D12A6802F114030B
:1033A00053E8003F23F00103143242E800310029C2
:1033B000F3D1202385F8413085F84230002385F889
:1033C0004030032000E00020BDE8F88360B310B572
:1033D000044690F8413013B3242384F84130226826
:1033E000D36823F40053D3602046FFF763FF2268BD
:1033F000136923F4904313612268536923F02A036D
:1034000053612268D36843F40053D36000206064A2
:10341000202384F8413084F84230606310BD80F886
:103420004030FEF737FCD7E7012070472DE9F04127
:1034300082B01E4690F84130DBB2202B4BD10446BF
:103440000D46904600294AD00AB9012044E00023E5
:103450004364212380F84130FFF7C6F80746A4F8FB
:103460002480A4F82680A368B3F5805F02D04FF0D3
:1034700000080FE02369FBB14FF000080AE038F8BC
:10348000023B2268C3F308035360E28C92B2013A14
:1034900092B2E284E38C9BB28BB100963B46002251
:1034A00080212046FFF750FFD8B9002DE7D015F84E
:1034B000012B23685A60E8E7A8460025EAE7009652
:1034C0003B46002240212046FFF73EFF58B920230B
:1034D00084F8413000E0022002B0BDE8F081012014
:1034E000FAE70320F8E70320F6E7704710B5034634
:1034F0000C4A0D490D48006840B10C48006803446F
:10350000521A934206D8094A136010BD0748084C66
:103510000460F2E7FCF728FF0C2303604FF0FF3054
:10352000F3E700BF000001200004000008030020B2
:10353000D007002070B50C461646002506E0AFF314
:103540000080214601F8010B01350C46B542F6DB3F
:10355000304670BD70B50C461646002504E014F8E0
:10356000010BAFF300800135B542F8DB304670BD8A
:103570004FF0FF3070474FF400534B60002070470E
:10358000012070470020704743684B609A688A604A
:1035900051609960086103680133036070470369F3
:1035A000416882688A60416851605A68824206D0E8
:1035B000002202611A68013A1A601868704782682E
:1035C0005A60F5E7084B1B681B6823B9074B4FF09F
:1035D000FF321A607047044B1B68DB68DB685A686F
:1035E000024B1A60704700BF2C030020100300201C
:1035F000F8B53A4B1B68002B64D1394B1D68013577
:103600001D60C5B9374B1B681B6843B14FF05003B1
:1036100083F31188BFF36F8FBFF34F8FFEE7314AFB
:103620001168314B186810601960304A1368013313
:103630001360FFF7C7FF2E4B1B68AB4238D900273A
:103640002C4B1B68DB6A03EB83039A002A4B9B58C5
:10365000012B3CD901273AE00127224B1B681B684C
:1036600043B3204B1B68DB68DC6863689D4226D34C
:10367000261D3046FFF793FFA36A1BB104F1180023
:10368000FFF78DFFE36A1D4A1268934201D91B4A76
:10369000136003EB83039A00314617481044FFF789
:1036A00073FFE26A134B1B68DB6A9A42D4D2D4E7F9
:1036B0000027D2E70E4B4FF0FF321A60C0E70C4AEA
:1036C0001360BDE70E4A13680133136000270D4BEA
:1036D0001B6803B101273846F8BD00BF0C0300206A
:1036E000240300202C0300202803002014030020C2
:1036F000100300209007002030030020200300204A
:103700001C03002018030020204B1B681BB1204B1A
:1037100001221A6070471E4B00221A601D4B1B6865
:1037200003EB83018A001C498A585AB90BB1013B4B
:10373000F6E74FF0500383F31188BFF36F8FBFF3A9
:103740004F8FFEE7084603EB83018A00024451686D
:103750004968516003EB830C4FEA8C020832024443
:1037600091420BD003EB830291000B4A0A4452684A
:10377000D1680A4A1160074A136070474868624678
:103780009100054A0A445060ECE700BF0C0300209A
:1037900018030020200300203003002090070020A1
:1037A000074B19680868B0E8F00F80F30988BFF389
:1037B0006F8F4FF0000080F311884EF00D0E7047B0
:1037C0009007002000000000000000000000000042
:1037D000EFF30980BFF36F8F0D4B1A6820E9F00FEC
:1037E00010602DE908404FF0500080F31188FFF77A
:1037F0008BFF4FF0000080F31188BDE80840196886
:103800000868B0E8F00F80F30988BFF36F8F704746
:103810009007002008B54FF0500383F31188BFF3E1
:103820006F8FBFF34F8FFFF7E3FE28B14FF0E02318
:103830004FF08052C3F8042D002383F3118808BD94
:10384000082802D94FF0FF30704770B50546840054
:103850000134E40004F580761021304600F0E0FDEC
:10386000304600F0ABFD0028FAD11F2104F50070AE
:1038700000F0D6FD0123AB40DB439BB20A490A8826
:103880001A400A80094A11880B4013800023084A15
:1038900022F81530074A535504F5407000F08EFDAC
:1038A0000028F9D1012070BDAE070020AC07002030
:1038B0009C07002094070020082800F294802DE93E
:1038C000F04182B005460F4690461E46012963D05E
:1038D0004BB2002B00F08A808B1EDBB2022B00F271
:1038E000888016F0040F40F087801EB1012F60D051
:1038F000022F64D02846FFF7A3FFAC00013426F066
:103900000F013943E00000F08BFDB8F1000F0AD140
:103910003C4AB2F8008008F101039BB213804FF6D5
:10392000F07293425AD0E4004FEA182104F5806007
:1039300000F076FD5FFA88F104F5A06000F070FDFC
:1039400004F580770121384600F06AFD384600F022
:1039500035FD0028FAD10123AB40DB439BB22A4955
:103960000A881A400A8006F00106AE4032430A80F7
:10397000264A11880B4013800023254A22F815306F
:10398000244A535504F5407000F018FD0028F9D082
:1039900068B202B0BDE8F08104220DEB02014FF4E1
:1039A000706000F071FD019B002B9AD16FF0020056
:1039B000EFE716F0210F9DD16FF00500E9E716F053
:1039C000200F02D016F0800F19D016F0100F91D0F2
:1039D00016F0800F8ED16FF00500DAE7094B4FF437
:1039E00040421A809FE74FF0FF3070476FF00400AD
:1039F000CFE76FF00400CCE76FF00500C9E76FF088
:103A00000500C6E768000020AE070020AC070020D4
:103A10009C07002094070020082867D82DE9F04172
:103A200007460E46904684000134E00000F0C6FCD4
:103A300000F00F0001285CD1E40004F54075284631
:103A400000F0BCFC132857D13278737803EB0223C3
:103A5000B27802EB0322F37803EB0223013B13F16C
:103A6000030F4CD8B8F1000F4CD00422314604F5B6
:103A7000406000F047FD4FEA182104F5805000F047
:103A8000CFFC5FFA88F104F5885000F0C9FC04F51A
:103A900080760421304600F0C3FC304600F08EFCF6
:103AA0000028FAD11A4B1B883B4113F0010F2CD18F
:103AB000284600F083FC172816D004F5007630461F
:103AC00000F07CFC10F0080F07D1284600F076FCCF
:103AD0000028EDD16FF0030018E00821304600F017
:103AE0009FFC6FF00C0011E001200FE04FF0FF3061
:103AF00070476FF0040009E06FF0020006E06FF01D
:103B00000B0003E06FF00A0000E00020BDE8F08148
:103B1000AE07002008287ED82DE9F84305468946DF
:103B2000144687000137F80000F048FC00F00F0051
:103B3000012873D1002C74D0FF0007F5407840466F
:103B400000F03CFC172801D01C286DD1384B1B8895
:103B50002B4113F0010F19D007F50076304600F025
:103B60002DFC10F0100F05D110F0080F18D1002017
:103B7000BDE8F8831021304600F052FC0123AB4031
:103B8000DB431BB22A4A11880B40138007F5F8501B
:103B900000F014FC8602B6B2B4420FD826460DE0FF
:103BA0002846FFF74DFE6FF00C00E1E72846FFF7CF
:103BB00047FE6FF00600DBE7B44214D2284600F05F
:103BC000DFFC0446404600F0F9FB172801D01C2812
:103BD000ECD1184B1B882B4113F0010FECD0B442F1
:103BE000EAD20020C4E732464946284600F0F3FCFA
:103BF00007F580772021384600F012FC384600F0A7
:103C0000DDFB0028FAD10123AB40094A11880B43A0
:103C100013803046ACE74FF0FF3070476FF0040080
:103C2000A6E76FF00D00A3E76FF00600A0E700BF66
:103C3000AC070020AE0700202DE9F047BDF820605A
:103C4000082800F293800546894692461C46870064
:103C500001374FEAC708404600F0B0FB00F00F0004
:103C60000238022800F28580BAF1000F00F084804B
:103C70002278637803EB0223A27802EB0322E37835
:103C800003EB022363B32EB9404600F097FB10F01C
:103C9000040F74D0FF0007F54078404600F08EFB1B
:103CA000422803D0222801D032286BD10422214699
:103CB00007F5406000F026FC310A07F5805000F05F
:103CC000AFFBF1B207F5885000F0AAFB07F5F850FA
:103CD00000F074FB8602B6B2B2450CD856460AE034
:103CE000404600F06BFB10F0040FCCD16FF00B00DE
:103CF0004DE0B44212D2284600F042FC0446404651
:103D000000F05CFB002840D0224B1B882B4113F0B5
:103D1000010FEED0B442ECD2002038E032464946E2
:103D2000284600F058FC07F580742021204600F05A
:103D300077FB204600F042FB0028FAD107F500741B
:103D4000204600F03BFB10F0100F09D110F0080FD7
:103D5000F4D00821204600F063FB6FF00C0016E061
:103D60001021204600F05CFB304610E04FF0FF30A1
:103D70000DE06FF004000AE06FF00D0007E06FF057
:103D80000A0004E06FF0060001E06FF00300BDE8F8
:103D9000F08700BFAE07002070477047704770473C
:103DA000007870470170704700207047704700002E
:103DB00020B119B1044A506191617047024B034A26
:103DC0005A61034A9A6170476C0000209D3D0008CB
:103DD0009F3D0008084B1B8813F4007FFAD020B1E8
:103DE00019B1054BD86119627047034B034ADA6178
:103DF000034A1A62704700BF6C000020A93D00080A
:103E0000AD3D000800B587B0062201A94FF410604F
:103E100000F03AFB042205A94FF4807000F034FB57
:103E2000042204A94FF4A06000F02EFB042203A991
:103E30004FF4706000F028FB8021002000F0F0FAC1
:103E4000002000F0BBFA062201A94FF4106000F038
:103E500059FB042205A94FF4807000F053FB0422A3
:103E600004A94FF4A06000F04DFB042203A94FF415
:103E7000706000F047FB07B05DF804FB70B50546C5
:103E80000E46FFF7BFFFCDB100221346072B07DC1C
:103E9000E95C0A4452B2102A2FDC01335BB2F5E729
:103EA000002409E0A0000130C000295D00F5F850B1
:103EB00000F0B6FA013464B2072CF3DD5EB10022E3
:103EC0001346072B09DCF15C0A4452B2102A17DCB6
:103ED00001335BB2F5E700200EE0002409E0A0000A
:103EE0000130C000315D00F5F05000F099FA013466
:103EF00064B2072CF3DD002070BD4FF0FF30FBE70C
:103F00004FF0FF30F8E738B5050A00F0F0014FF444
:103F1000A85000F085FA002401E00134E4B2072C37
:103F20000DD845FA04F313F0010FF6D0A0000130CC
:103F3000C0001F2100F5007000F072FAEDE738BDF7
:103F400010B54FF4A85000F039FA00F0F0044FF427
:103F5000B85000F033FA000280B2204480B210BDA5
:103F600010B5040AC1B24FF4B05000F059FA21461E
:103F70004FF4C05000F054FA10BD10B54FF4B050DB
:103F800000F01CFA04464FF4C05000F017FA030288
:103F90009BB2181980B210BD08B54FF4385000F02C
:103FA0000DFA10F0010F01D1002008BD0120FCE73F
:103FB00008B54FF4385000F001FA00F0380030280E
:103FC00001D0002008BD0120FCE708B54FF43850AF
:103FD00000F0F4F900F07F014FF4385000F020FABF
:103FE0004FF4385000F0EAF960F07F01C9B24FF4A5
:103FF000385000F015FA08BD08B50378012B0CD035
:1040000000214378012B0AD0C378012B10D083788C
:10401000012B06D141F0100103E04021F1E741F00E
:1040200038014FF4385000F0FBF9FFF7CEFF08BD20
:104030008378012B02D041F00801F2E741F018012A
:10404000EFE7000010B504464FF4385000F0B6F921
:10405000C0F38013237000F03803202B04D0382BDA
:1040600002D00022627001E001226270A3F110020E
:10407000D2B2102A14D80D4921FA02F212F0010F1F
:104080000ED00122A270083BDBB2182B0BD8084AD5
:1040900022FA03F313F0010F05D00123E37010BDE2
:1040A0000022A270EFE70023E370F8E701010100AE
:1040B0000100010110B504464FF4385000F07EF9BC
:1040C00010F0400F24D000F0C701012C12D041F0B5
:1040D00038014FF4385000F0A3F9FFF776FF4FF4A2
:1040E000385000F06BF9012C07D010F0380F0CD0CD
:1040F000002010BD41F03001EBE710F0300F01D08F
:104100000020F6E74FF0FF30F3E74FF0FF30F0E725
:104110004FF0FF30EDE7000030B583B00C460023D0
:10412000009301930F2809D8DFE800F00B0F1D184A
:1041300022272C3947575B60796569714FF0FF3052
:104140006EE0FFF75FFE00206AE011B100910834D5
:10415000019401990098FFF791FE61E00888FFF74C
:10416000D2FE00205CE0FFF7EBFE2080002057E04D
:104170000888FFF7F5FE002052E0FFF7FEFE2080E2
:1041800000204DE00988090A4FF4985000F048F9E2
:1041900021784FF4A05000F043F9002040E04FF4A4
:1041A000985000F00BF90502ADB24FF4A05000F0AA
:1041B00005F905442580002032E01D4B9A780A70ED
:1041C000DA784A701A798A705A79CA709A790A71BB
:1041D000DB794B710020887122E0FFF7F6FE0020AA
:1041E0001EE00846FFF708FF002019E00846FFF729
:1041F00029FF002014E00878FFF75CFF10E0FFF7CC
:10420000D7FEC0B2FF280DD02070002008E0FFF7D5
:10421000C3FEC0B2FF2808D02070002000E00020BC
:1042200003B030BD4FF0FF30FAE74FF0FF30F7E753
:104230006C00002010B50446062201464FF41060C1
:1042400000F060F9042204F10E014FF4807000F0D8
:1042500059F9042204F10A014FF4A06000F052F968
:104260000422A11D4FF4706000F04CF9A27C064BB3
:104270001A70E27C5A70227D9A70627DDA70A27D9B
:10428000024B1A7010BD00BFB4070020B007002019
:1042900010B50446062201464FF4106000F0F4F811
:1042A000042204F10E014FF4807000F0EDF80422B6
:1042B00004F10A014FF4A06000F0E6F80422A11D09
:1042C0004FF4706000F0E0F8064B1A78A2745A7848
:1042D000E2749A782275DB786375034B1B78A375BB
:1042E00010BD00BFB4070020B007002030F03A0333
:1042F0000CD110B50446002000F060F844EA00013B
:10430000C9B2002000F08CF8002010BD4FF0FF3043
:10431000704708B5002000F051F808BD10B50446FC
:1043200001784FF4D85000F07BF86188090A4FF407
:10433000C85000F075F8A1784FF4D05000F070F834
:1043400010BD38B505464FF4D85000F037F8287046
:104350004FF4C85000F032F80402A4B24FF4D05029
:1043600000F02CF804446C8038BD10B50C460528CC
:1043700021D8DFE800F003080D11161B0846FFF7EF
:1043800059FF002010BD0846FFF782FF0020F9E723
:104390000878FFF7ABFFF5E7FFF7BBFF20700020C1
:1043A000F0E70846FFF7BAFF0020EBE70846FFF703
:1043B000C8FF0020E6E74FF0FF30E3E730B583B0F9
:1043C0000446164DEB6898476B6998476B6A6BB16A
:1043D000AB6A5BB1220C8DF80420220A8DF805200F
:1043E0008DF80640032101A898470BE00B4D2B6A7E
:1043F000C4F3074098472B6AC4F3072098472B6AF9
:10440000E0B29847054DEB6998470446AB69984779
:104410002B699847204603B030BD00BF6C000020D8
:1044200070B582B004460E46164DEB6898476B692E
:10443000984744F00404AB6AA3B1220C8DF8042021
:10444000220A8DF805208DF806408DF807600421BA
:104450000DEB010098470B4CA369984723699847D7
:1044600002B070BD2B6AC4F3074098472B6AC4F3AF
:10447000072098472B6AE0B298472B6A3046984746
:10448000E9E700BF6C000020F0B583B004460E469B
:1044900015461B4FFB6898477B6998477B6A93B129
:1044A000BB6A83B1220C8DF80420220A8DF8052006
:1044B0008DF80640032101A89847114B5B6A2946F5
:1044C0003046984715E00E4F3B6AC4F307409847C3
:1044D0003B6AC4F3072098473B6AE0B29847002440
:1044E00005E0074BDB69984730550134A4B2AC4274
:1044F000F7D3034CA36998472369984703B0F0BDED
:104500006C000020F0B583B004460E4615461B4FE4
:10451000FB6898477B69984744F00404BB6AB3B1D1
:10452000220C8DF80420220A8DF805208DF8064013
:10453000032101A89847114B9B6A294630469847AA
:104540000E4CA36998472369984703B0F0BD3B6AB6
:10455000C4F3074098473B6AC4F3072098473B6A77
:10456000E0B29847002405E0044B1B6A305D984791
:104570000134A4B2AC42F7D3E2E700BF6C000020E4
:104580002DE9F0410746002501E0A54220D04FEA81
:10459000870808F101084FEAC80808F500563046B8
:1045A000FFF70CFF0402A4B208F504584046FFF7D9
:1045B00005FF0444A4B2002CE7D03046FFF7FEFE0E
:1045C0000502ADB24046FFF7F9FE0544ADB2DCE7A7
:1045D0002846BDE8F08102B970472DE9F8430E4640
:1045E0001746840004F101094FEAC90909F510587A
:1045F0004046FFF7E3FE0502ADB209F514594846FF
:10460000FFF7DCFE0544ADB2A01CC0003A463146BF
:1046100000EB0520FFF776FF79198CB2C1F3072173
:104620004046FFF7FDFEE1B24846FFF7F9FEBDE860
:10463000F883000008B500224FF400710148FEF72E
:104640004BFC08BD0020014008B501224FF4007169
:104650000148FEF741FC08BD0020014010B50A4C9E
:1046600000224FF400412046FEF736FC0120FDF702
:10467000C1FF01224FF400412046FEF72DFC4FF40C
:10468000C860FDF7B7FF10BD0020014008B50A461D
:104690004FF0FF3301460248FDF7C9FE08BD00BFD9
:1046A0001C02002000B583B001210DF10700FFF7C7
:1046B000EDFF9DF8070003B05DF804FB08B50A465E
:1046C0004FF0FF3301460248FDF7B3FC08BD00BFC1
:1046D0001C02002000B583B08DF8070001210DF108
:1046E0000700FFF7EBFF03B05DF804FB00B585B0F2
:1046F000FFF7B4FF0F491048FFF75AFB0F49104866
:10470000FFF768FB0F490020FFF72FFE0E4901203D
:10471000FFF72BFE0D4BEC460FCB8CE80F006146EC
:104720000120FFF7F9FC6420FDF764FF05B05DF898
:1047300004FB00BF4946000835460008D54600087E
:10474000A546000898000020B8070020A4490008EA
:1047500000B587B0124B93E8070006AB03E90700EA
:104760004FF45270FFF72AFE78B1222814D10A20A4
:10477000FDF740FF0B4B1B8800930B4B0C220DEBFE
:1047800002010220FFF758FA06E00023074A1288C8
:1047900002210846FFF790F807B05DF804FB00BF60
:1047A000B8490008B2000020B4000020B00000208A
:1047B00010B586B00DF1040C1F4C0FCCACE80F0007
:1047C00023682CF8023B1B0C8CF800304FF44A7025
:1047D000FFF7F4FD1C2817D8DFE800F00F161616B7
:1047E0001616161616161616161616161616161867
:1047F0001616161F16161616290020230F4A1288A1
:1048000001210846FFF758F806B010BD0C4B1A8876
:104810000C490120FFF700F9F6E701A90A48FBF768
:104820002FFE132201A90120FFF774F9ECE7012004
:10483000FFF706F8E8E700BFDC490008B0000020F9
:10484000B2000020B4000020C449000810B5A2B096
:10485000284B0DF1780C0FCBACE807008CF800303A
:10486000254B0DF1680C0FCBACE807008CF800303D
:10487000224B0DF1580C0FCBACE80700ACF8003020
:104880000DF1440C1E4C0FCCACE80F002368CCF8A3
:1048900000300DF12C0C1B4C0FCCACE80F0094E851
:1048A00003004CF8040BACF800100DF1180C164C7A
:1048B0000FCCACE80F002368CCF80030EC46134C6A
:1048C0000FCCACE80F0094E803004CF8040B8CF814
:1048D0000010FFF70BFF4FF0FF33152269460C481D
:1048E000FEF7A4FDFFF764FF4FF47A70FDF782FE38
:1048F000F1E700BFF0490008004A0008104A00082C
:10490000204A0008344A00084C4A0008604A00085F
:1049100074020020FEF7E9FD0B480C490C4A002305
:1049200002E0D458C4500433C4188C42F9D3094A65
:10493000094C002301E013600432A242FBD3FBF7D1
:104940009BFCFDF7C7F8704700000020B80000206E
:10495000C44A0008B8000020D0070020FEE700008D
:10496000F8B500BFF8BC08BC9E467047F8B500BF5C
:08497000F8BC08BC9E4670472C
:104978000102000002030405060708090A0B0C0DD2
:104988000E0F1010000000000102030400000000D8
:1049980000000000010203040607080902020202DF
:1049A80002020202020202020202020200000000E7
:1049B80068656C6C6F20777777770A00257300003D
:1049C8004920616D20544350205365727665720A00
:1049D800000000004920616D2054435020436C6959
:1049E800656E7420310A000068656C6C6F2077353D
:1049F8003530300A0000000074686973206973203C
:104A08007564700A00000000746869732069732077
:104A1800756470310A000000746869732069732036
:104A2800746370207365727665720A0074686973BE
:104A38002069732074637020736572766572203103
:104A48000A00000074686973206973207463702019
:104A5800636C69656E740A007468697320697320F1
:104A680074637020636C69656E74310A000000001D
:104A7800232D302B20000000686C4C0065666745CC
:104A88004647000030313233343536373839414201
:104A98004344454600000000303132333435363760
:0C4AA8003839616263646566000000003C
:084AB400C0B8FF7F0100000003
:044ABC005902000893
:044AC00031020008B7
:104AC4000400002000000000D40000203C0100206D
:104AD400A40100200000000000000000000000000D
:104AE40000000000000000000000000000000000C2
:104AF40000000000000000000000000000000000B2
:104B040000000000000000000000000000000000A1
:104B14000000000003000000D40000200100000099
:104B24001000000000127A0000C000000102573596
:104B34003530300000000000993D00089B3D00081E
:104B44009D3D00089F3D0008A13D0008A53D0008CB
:104B540000000000000000000008DC111111C0A8D2
:104B64000102FFFFFF00C0A8010190909090010096
:084B740089138A13C0A8011681
:040000050800491591
:00000001FF
