:020000040800F2
:10000000B8050020450100081D1800081517000854
:100010001918000861020008B51A00080000000065
:100020000000000000000000000000002D19000882
:1000300065020008000000002118000831190008BE
:100040005F0100085F0100085F0100085F01000810
:100050005F0100085F0100085F0100085F01000800
:100060005F0100085F0100085F0100085F010008F0
:100070005F0100085F0100085F0100085F010008E0
:100080005F0100085F0100085F0100085F010008D0
:100090005F0100085F0100085F0100085F010008C0
:1000A0005F0100085F0100085F0100085F010008B0
:1000B0005F0100085F0100085F0100085F010008A0
:1000C0005F0100085F0100085F0100085F01000890
:1000D0005F0100085F0100085F0100085F01000880
:1000E0005F0100085F0100085F0100085F01000870
:1000F0005F0100085F0100085F0100085F01000860
:100100005F0100085F0100085F0100085F0100084F
:100110005F0100085F0100085F0100085F0100083F
:100120005F0100085F0100085F0100085F0100082F
:10013000DFF80CD000F05CF8004800478526000886
:10014000B80500200648804706480047FEE7FEE75E
:10015000FEE7FEE7FEE7FEE7FEE7FEE7FEE7FEE777
:100160003519000831010008D2B201E000F8012B76
:10017000491EFBD270470022F6E710B513460A4627
:1001800004461946FFF7F0FF204610BD2DE9F05F49
:100190000546002092469B468846064681464024F6
:1001A0001BE0284641464746224600F048F85346A1
:1001B0005A46C01A914110D311461846224600F003
:1001C0002FF82D1A67EB01084F4622460120002127
:1001D00000F026F817EB00094E41201EA4F101049F
:1001E000DFDC484631462A464346BDE8F09F000022
:1001F0001CB509480090094801900546009C06E09E
:10020000E06840F0010394E8070098471034AC42DE
:10021000F6D3FFF791FF00008C360008AC360008DB
:10022000202A04DB203A00FA02F1002070479140B6
:10023000C2F1200320FA03F3194390407047202AAB
:1002400004DB203A21FA02F00021704721FA02F380
:10025000D040C2F120029140084319467047000087
:10026000FEE7000070470000EFF3108072B600BF99
:10027000FEE70000B0B5044600F00AF9054640F27A
:100280002400C2F200000078611C18BF044400BFC3
:1002900000F0FEF8401BA042FAD3B0BD2DE9F04FAC
:1002A00082B00E68002E00F0E980A0F1804241F695
:1002B000004540F20043A2F58432C4F20105062451
:1002C000C4F201034FEAB227A84208BF05244FF049
:1002D000000E4FF001080F254FF0000A4FF0000B01
:1002E000052F38BF4FEAB224009408E00E680AF1E7
:1002F000010A36FA0AF20EF1040E00F0BF8008FA85
:100300000AFC16EA0C09F1D04E684FF6FF72C1F2F2
:100310001002964212DC122E56D8DFE806F0350B9A
:100320004D495555555555555555555555555545A1
:10033000510000BFD1F80CB046E000BF4FF6FF728D
:10034000C1F2210296420FDC0022C1F21102964254
:100350001AD00022C1F21202964215D00022C1F238
:100360002102964210D02FE00022C1F222029642D2
:100370000AD00022C1F23102964205D00022C1F219
:100380003202964220D100BF8A684AB1012A14BFC6
:10039000C0F814C0C0F810C04FF0080B14E000BF44
:1003A0004FF0040B10E000BFCA6802F1040B0BE031
:1003B0004FF0000B08E000BFCA6802F1080B03E031
:1003C000CA6802F10C0B00BF02467446B9F5807F83
:1003D00024BF0432203C166805FA04F726EA070712
:1003E0000BFA04F637431760CA79D2067FF57EAF61
:1003F00041F21807C4F202073A684FF6084542F086
:1004000001023A603A68CFF6FF7502F001020192EC
:10041000019A2AF003021A440F2457590EF00C06D1
:10042000B440A743009C04FA06F6374357514E6880
:100430000F25F2031A6854BF22EA090242EA0902B0
:100440001A605A68B70354BF22EA090242EA090255
:100450005A60F7029A6854BF22EA090242EA090286
:10046000B70240F20C479A60C4F201073A6854BFE1
:1004700022EA090242EA09023A6037E702B0BDE81F
:10048000F08F0000002A08BF0904016170470000D6
:1004900040F2B410C2F200000068704740F224003D
:1004A00040F2B411C2F20000C2F2000100780A6802
:1004B000104408607047000080B542F20000C4F2AA
:1004C0000200016841F010010160032000F07AF899
:1004D0000F2000F005F800F027F8002080BD000094
:1004E00070B540F22406C2F2000640F22C013278C8
:1004F000C2F200014FF47A730968B3FBF2F20446CA
:10050000B1FBF2F1084600F07BFF0F2C4FF0010524
:1005100008D838B94FF0FF3021460022002500F0FE
:1005200025F87460284670BD82B041F21800C4F20C
:1005300002000168022241F001010160016801F03E
:10054000010101910199416841F080514160406889
:1005500000F08050009000980420C4F2010001686F
:1005600062F31A61016002B07047000010B54EF6E8
:100570000C5CCEF2000CDCF80030C3F3022E8EF0DF
:100580000704042C28BF0424BEF103034FF0FF3EF0
:100590000EFA04F438BF0023A14399400EFA03F386
:1005A0009A43114300F00F0200F160430901043A3D
:1005B00003F564436244002848BF02F10C0319703C
:1005C00010BD00004EF60C51CEF200010A684FF645
:1005D000FF031A4060F30A2242F0806040F0FD7091
:1005E00008607047002804BF012070472DE9F043E0
:1005F00081B042F20008C4F202080446D8F80000B4
:100600000D4600F0070088420CD2D8F8000020F018
:1006100007002843C8F80000D8F8000000F00700E1
:10062000A8426CD1206841F204098107C4F2020992
:1006300017D5410705D5D9F8001041F4E061C9F894
:100640000010010705D5D9F8001041F46051C9F830
:100650000010D9F80010A26821F0F0011143C9F888
:100660000010C00742D1D8F8000000F00700A842EF
:100670000CD9D8F8000020F007002843C8F8000083
:10068000D8F8000000F00700A84238D120684107E0
:1006900007D5D9F80010E26821F4E0611143C9F8E8
:1006A0000010000708D5D9F80000216920F4605037
:1006B00040EAC100C9F80000D9F8002002F00C009F
:1006C000082841F20020C0F27A004DD143F25E6367
:1006D000C2F38341C0F60003595CD20338D440F61C
:1006E0000010C0F23D0048433EE000BF606859F88A
:1006F000041C022808D0012826D1890306D4012031
:1007000001B0BDE8F08300BF8901F8D5D9F8001029
:1007100021F003010843C9F80000FFF7B9FE0646BF
:1007200041F28837D9F80000616800F00C00B0EBA6
:10073000810F98D0FFF7ACFE801BB842F2D903209E
:1007400001B0BDE8F08300BF8907D8D5DEE700BF60
:10075000D9F8002043F24463C2F34042C0F60003DC
:100760009A5C4843B0FBF2F0D9F8001043F24662BD
:10077000C1F30311C0F60002515C40F22C0220FAD2
:1007800001F140F22800C2F200000068C2F200024B
:100790001160FFF7A5FE002001B0BDE8F083000066
:1007A00040F22C0041F20401C2F20000C4F2020146
:1007B0000068096843F25662C1F30221C0F60002E4
:1007C000515CC8407047000040F22C0041F2040127
:1007D000C2F20000C4F202010068096843F25662E6
:1007E000C1F3C221C0F60002515CC840704700004E
:1007F000002804BF012070472DE9F04182B0044673
:10080000007841F20006C007C4F202060CD07068FE
:1008100000F00C00042840F081803068800303D58C
:100820006068002800F04681207880071BD570683A
:1008300010F00C0F09D0706800F00C00082840F090
:1008400087807068C00300F183803068800703D51B
:100850002069012840F02E813068616920F0F8009D
:1008600040EAC10030602078000713D420784007A8
:100870002CD4E569002D00F01881706800F00C00A0
:10088000082840F0A780012D40F00481012002B02B
:10089000BDE8F081A069002800F084800020C4F247
:1008A00042200121C0F88014FFF7F2FD054600BF89
:1008B000706A800700F1B280FFF7EAFD401B022852
:1008C000F6D9032002B0BDE8F08100BFF0695FEA0D
:1008D000C00808D4F06940F08050F061F06900F081
:1008E00080500090009847F20007C4F20007386873
:1008F000C00549D4386840F480703860FFF7C8FDFF
:10090000054600BF3868C0053ED4FFF7C1FD401B57
:100910006428F7D9032002B0BDE8F081706800F0C8
:100920000C00082803D17068C0033FF576AF6168FA
:100930003068002900F00C81B1F5A02F00F0008193
:10094000B1F5803F40F01A8140F480301CE100BFD7
:100950002069002840F20000C4F2422000F08880A4
:1009600001210160FFF794FD054600BF3068800754
:100970003FF572AFFFF78CFD401B0228F6D903202C
:1009800002B0BDE8F08100BFE168306A002900F0E4
:100990009D80052900F09280012940F0AF8040F051
:1009A0000100B1E00020C4F242200021C0F8801410
:1009B000FFF76EFD054600BF706A80077FF556AFF2
:1009C000FFF766FD401B0228F6D9032002B0BDE800
:1009D000F08100BF0027C4F2422700203866FFF7ED
:1009E00057FD022D05460DD13068800140F1DE80B3
:1009F000FFF74EFD401B02284FF00300F4D902B070
:100A0000BDE8F081306880014FD5FFF741FD401B04
:100A100002284FF00300F5D9F1E700BF40F22C00A7
:100A2000C2F20000006844F6D351C1F26201A0FB9B
:100A30000101480A019000BF00BF0198411E002833
:100A400001913FF413AF00BF0198411E00280191AE
:100A50003FF40CAF00BF0198411E002801913FF404
:100A600005AF00BF0198411E00280191E4D1FDE6C9
:100A700000210160FFF70CFD054600BF30688007CC
:100A80007FF5F1AEFFF704FD401B02284FF0030095
:100A9000F4D9B4E77068216A00F480328A4209D13F
:100AA000616A00F47010884204D1002002B0BDE8F1
:100AB000F08100BF012002B0BDE8F08140F00400E9
:100AC0003062306A40F001001EE000BF20F00100FB
:100AD0003062306A20F004003062FFF7D9FC05462E
:100AE00041F28837306A800720D5FFF7D1FC401BE0
:100AF000B8424FF00300F5D981E700BF20F00100B4
:100B00003062306A20F004003062FFF7C1FC054615
:100B100041F28837306A800708D4FFF7B9FC401BE0
:100B2000B842F7D9032002B0BDE8F081B8F1000F58
:100B30003FF59FAEF06920F08050F06199E600BF6C
:100B400040F480203060306840F480301CE000BF0A
:100B500020F480303060306820F480203060FFF76F
:100B600097FC0546306880037FF55EAEFFF790FC8A
:100B7000401B64284FF00300F4D940E720F4803094
:100B80003060306820F480203060FFF781FC05463B
:100B9000306880033FF548AEFFF77AFC401B6428BD
:100BA000F6D9032002B0BDE8F08100BF206AB0F59D
:100BB000803F05D17168A26821F400311143716052
:100BC0007168626A21F47411114308437060012056
:100BD0003866FFF75DFC0446306880013FF565AF7D
:100BE000FFF756FC001B02284FF00300F4D906E77C
:100BF000002804BF01207047B0B504460020A06261
:100C000094F8511029B984F85000204600F032F8C9
:100C10000020022184F85110D4E9001ED4E9023CDE
:100C20000A6822F040020A6043EA0E02236942EA9F
:100C30000C0242EA030CD4E90532E5694CEA030CE4
:100C400002F4007E4CEA0E0343EA050C256AA36A0F
:100C500045EA0C052B430B60042303EA12424A6069
:100C6000CA6922F40062CA610121606584F85110EA
:100C7000B0BD000070B586B040F60044C4F2010477
:100C80000068A4F55441002688420596CDE9036624
:100C9000029601D006B070BD41F21800C4F2020005
:100CA000416802AD41F480414160416801F48041F6
:100CB00001910199016841F008010160006829462D
:100CC00000F00800019001984FF4204002900220AB
:100CD0000390032005902046FFF7E0FA4FF4804090
:100CE000CDE90206204629460496FFF7D7FA06B05A
:100CF00070BD00002DE9F04381B0044640681D46F8
:100D00001746B0F5827F0E4601D1A068E0B394F893
:100D10005000012804D1022001B0BDE8F08300BFDB
:100D20004FF0010984F85090FFF7B2FB94F851108E
:100D3000012927D18046002E4FF0010018BF002F57
:100D400000F0A9800420002184F851006165A663A9
:100D5000A787E7872163A186E186A2682068B2F5AC
:100D6000004F2164616449D0016849064DD5E168AE
:100D7000E08F002951D0002800F08080681C1CD131
:100D80002BE000BF022086E0042084F851002046BA
:100D9000314632463B46009500F0AAF901B0BDE865
:100DA000F08300BFC068A16B21F8020BA163E08F44
:100DB0000138E087E08F002860D020688168C9078B
:100DC000F0D1FFF765FBA0EB0800A842F2D33EE0AC
:100DD000FFF75EFBE08F002850D020688168C907CC
:100DE000F6D0C068A16B21F8020BA163E08F013837
:100DF000E087E08F0028F0D140E000BF016821F4D7
:100E00008041016001684906B1D4016841F04001A8
:100E10000160E168E08F0029ADD178B3681C0CD186
:100E20001CE000BF007BA16B0870A06B0130A063C9
:100E3000E08F0138E087E08F00B320688168C90740
:100E4000F0D1FFF725FBA0EB0800A842F3D3032065
:100E500021E000BFFFF71CFBE08F78B120688168BC
:100E6000C907F7D0007BA16B0870A06B0130A063AD
:100E7000E08F0138E087E08F0028EFD12046294637
:100E8000424600F0CFFC00281CBF20206065606D4A
:100E9000002818BF0120002184F8519084F85010D8
:100EA00001B0BDE8F08300002DE9F04381B00446B5
:100EB00090F85000012803D1022001B0BDE8F08372
:100EC0004FF001081D460F46164684F85080FFF784
:100ED000DFFA94F85110012942D18146002F4FF0DA
:100EE000010018BF002E00F0FB800320002284F8D0
:100EF000510062652763A686E686A263A287E28721
:100F0000A0683146B0F5004F20682264626403D1C6
:100F1000026842F4804202600268520603D402680A
:100F200042F04002026062680139E368B2FA82F27C
:100F3000B1FA81F152094909B3F5006F41EA0201A2
:100F40003CD131B137F8021BC1602763E08E013814
:100F5000E086E08E00286BD0681C0ED11DE000BF3B
:100F60000220BDE0216B31F8022BC2602163E08ECC
:100F70000138E086E08E00285AD020688168890711
:100F8000F0D4FFF785FAA0EB0900A842F2D338E0CD
:100F9000FFF77EFAE08E00284AD020688168890732
:100FA000F6D5216B31F8022BC2602163E08E013847
:100FB000E086E08E0028F0D13AE000BF39B1397800
:100FC0000173206B01302063E08E0138E086E08EF3
:100FD00070B3681C0BD11BE0216B09780173206B87
:100FE00001302063E08E0138E086E08E00B3206897
:100FF00081688907F0D4FFF74BFAA0EB0900A842FB
:10100000F3D303206CE000BFFFF742FAE08E78B123
:10101000206881688907F7D5216B09780173206BF7
:1010200001302063E08E0138E086E08E0028EFD1A9
:1010300020688168090646D5691C0ED0FFF728FA9A
:10104000A0EB09012068A94212D281680906F5D4F3
:1010500039E000BF8168090635D58168090632D5B7
:101060008168090644BF81685FEA01612BD5F1E719
:10107000416821F0E00141606168B1F5827F0AD1E9
:10108000A168B1F5004F02D0B1F5806F03D10168BE
:1010900021F040010160A16AB1F5005F07D101684C
:1010A00021F400510160016841F400510160012107
:1010B00084F85110002184F85010616D41F0200136
:1010C000616520216165A16831B900210091C16885
:1010D0000091806800900098606D002818BF012082
:1010E000002184F8518084F8501001B0BDE8F083ED
:1010F0002DE9F04182B0044690F85000012803D158
:10110000022002B0BDE8F08101201F4615460E46C0
:1011100084F85000FFF7BCF994F85110804601297B
:1011200040F09680002E4FF0010018BF002D00F017
:101130005D81002F00F05A8194F8510000210428AD
:101140001CBF052084F851006165A563E787A78768
:101150002663E7862068A7862164616401684906E2
:1011600003D4016841F04001016061687B1EE268C0
:10117000B1FA81F1B3FA83F3089D49095B09B2F52D
:10118000006F41EA030173D131B136F8021BC1602F
:101190002663E08E0138E0860126681C31D101E02B
:1011A000FFF776F9E08E18B9E08F002800F0C880CC
:1011B0002068816889070CD5E18E51B1012E08D1D4
:1011C000216B002631F8022BC2602163E18E0139C8
:1011D000E1868168C907E3D0E18F0029E0D0C068CB
:1011E000A16B012621F8020BA163E08F0138E08793
:1011F000D6E700BFFFF74CF9A0EB0800A84280F04B
:10120000B180E08E18B9E08F002800F09980206846
:10121000816889070CD5E18E51B1012E08D1216B6F
:10122000002631F8022BC2602163E18E0139E1868C
:101230008168C907DED0E18F0029DBD0C068A16BCF
:10124000012621F8020BA163E08F0138E087D1E786
:101250006068B0F5827F09D104294FF0020040F0A8
:10126000C580A16800293FF45DAFBFE00220BDE06A
:1012700039B131780173206B01302063E08E013881
:10128000E0860126681C33D102E000BFFFF700F9B9
:10129000E08E10B9E08F002852D02068816889075D
:1012A0000ED5E18E61B1012E0AD1216B002609789D
:1012B0000173216B206801312163E18E0139E186E0
:1012C0008168C907E2D0E18F0029DFD0C068A16B37
:1012D00001260870A06B0130A063E08F0138E08721
:1012E000D4E700BFFFF7D4F8A0EB0800A84239D23A
:1012F000E08E08B9E08F18B32068816889070ED5A1
:10130000E18E61B1012E0AD1216B002609780173AB
:10131000216B206801312163E18E0139E18681680A
:10132000C907DFD0E18F0029DCD0C068A16B01269E
:101330000870A06B0130A063E08F0138E087D1E72F
:101340002168886800061CD5681C10D0FFF7A0F83B
:10135000A0EB08002168A84220D288680006F5D4D6
:101360000FE000BF032041E08868000609D58868C7
:10137000000606D58868000644BF88685FEA0060FA
:10138000F2D4A06800284FF000002FD10190CA6865
:10139000019289680191019928E000BF486820F016
:1013A000E00048606068B0F5827F0AD1A068B0F5BF
:1013B000004F02D0B0F5806F03D1086820F04000E4
:1013C0000860A06AB0F5005F07D1086820F40050FB
:1013D0000860086840F400500860012084F851005B
:1013E000616D41F02001616520216165012184F872
:1013F0005110002184F8501002B0BDE8F0810000C7
:10140000411E0020B0EB116F1CBF012070474EF24F
:101410001002CEF2000251604EF62351CEF20001CE
:10142000F0230B700721906011607047002804BF03
:101430000120704710B5044690F8390028B9002003
:1014400084F83800204600F061F8242084F8390040
:101450002068D4E90212C36823F40053C36003690F
:1014600023F440531A430261D4E904231143C268B0
:10147000194341F20C639A431143C1604169A26967
:1014800021F44071114343F60002C4F2010290427C
:10149000416103D0FFF784F902E000BFFFF794F940
:1014A000D4E90023192148439900B0FBF1F048F238
:1014B0001F5CC5F2EB1CA0FB0C314FF69C73490975
:1014C000C0F6FF7301FB0300322303EB0010A0FB07
:1014D0000C03F02000EA531000EB0110C3F343119A
:1014E000084490601069202120F4904010615069F8
:1014F00020F02A005061D06840F40050D0600020F5
:10150000E06384F8391084F83A1010BD70B586B0E5
:1015100040F60004C4F20104006804F540510026BE
:1015200088420596CDE90366029601D006B070BDEB
:1015300041F21800C4F20200016802AD41F480419A
:101540000160016801F4804101910199016841F055
:10155000040101600068294600F004000190019830
:101560004FF4007002900220039003200590204663
:10157000FEF794FE4FF48060CDE90206204629462E
:101580000496FEF78BFE06B070BD00002DE9F04119
:10159000044690F8390020280CD10E4600294FF05F
:1015A000010018BF002A01D1BDE8F08194F838008D
:1015B000012803D10220BDE8F08100BF012084F89A
:1015C00038000020E06321201D4684F839001746CA
:1015D000FEF75EFFA784E784E18C074600295FD011
:1015E00005F1010806E000BF16F8011B4160E18C1F
:1015F000002956D0E08C0138E0842068A168026898
:10160000B1F5805F4FEA02611CD100290DD4B8F119
:10161000000F29D0002D6AD0FEF73AFFC11B2068C9
:10162000A94264D801680906F6D531886FF35F21B5
:1016300041602169002914BF01360236E18C00297E
:10164000D8D12EE00029CFD4B8F1000F1AD0002D48
:101650004DD000BFFEF71CFFC11B2068A94246D831
:1016600001680906F6D5BFE701680906DDD40168FF
:1016700009065CBF01685FEA0161D6D4016809060A
:10168000F2D5D2E701680906AED4016809065CBF4D
:1016900001685FEA0161A7D401680906F2D5A3E7F2
:1016A0002068016849060FD40DB3691C19D101687F
:1016B000490609D4016849065CBF01685FEA4161D7
:1016C00002D401684906F2D5202084F839000020B0
:1016D000002184F83810BDE8F08100BF00684006A2
:1016E000F2D4FEF7D5FEC11B2068A942F6D9C16825
:1016F00021F4D071C160416921F0010141612020D4
:1017000084F8390084F83A000320002184F8381066
:10171000BDE8F081FEE7000070B586B0002541F21B
:101720001800CDE90455CDE90255C4F20200016864
:1017300042F2000441F0080101600168C4F20104B2
:1017400001F00801019101990168002241F48071C2
:10175000016001684FF4034601F480710191019921
:10176000016841F00401016000684FF4034100F09A
:101770000400019001982046FEF784FE0120CDE987
:1017800003050220059002A920460296FEF786FD79
:1017900006B070BD80B540F21C1043F60001C2F2E5
:1017A0000000C4F200014FF4827200234FF4007C69
:1017B00080E80E000A21C0E90333C0E9053CC3619B
:1017C000C0E90833C0E90A31FFF712FA002808BF60
:1017D00080BDBDE88040FEF747BD000080B540F207
:1017E000741043F60001C2F20000C4F201010023AC
:1017F0004FF00C0C4FF4E13280E80E00C0E90333E7
:10180000C0E905C3C361FFF711FE002808BF80BD12
:10181000BDE88040FEF728BDFEE70000FEE70000BF
:101820007047000070B5044640681546B0F5827FE9
:101830000E465BD1A068B0F5004F02D0B0F5806FC6
:1018400054D12168B0F5806F0A6822F040020A6026
:101850004DD18868C00766D0701C15D18868C00754
:1018600061D08868C0071CBF88685FEAC0705AD022
:101870008868C0074FF00000F0D155E08068C007CD
:101880004FF0000008BF70BDFEF702FE411B20684C
:10189000B142F3D3416821F0E00141606168B1F5E4
:1018A000827F0AD1A168B1F5004F02D0B1F5806FF7
:1018B00003D1016821F040010160A16AB1F5005F28
:1018C00007D1016821F400510160016841F4005121
:1018D0000160012084F85100002084F85000606D00
:1018E00040F020006065032070BD00BF216888685B
:1018F000000618D5701C0CD0FEF7CAFD411B2068ED
:10190000B142C7D280680006F6D40CE088680006B1
:1019100009D58868000606D58868000644BF88682F
:101920005FEA0060F2D4002070BD00007047000044
:10193000FEF7B4BD41F20000C4F2020001680022CB
:1019400041F0010101604168CFF6FF0211404160A2
:1019500001684FF6FF72CFF6F66211400160016830
:1019600021F480210160416821F4FE0141604FF4BF
:101970001F0181604EF60850CEF200004FF000616A
:101980000160704770B586B042F20004C4F20104F1
:1019900020464FF400410022FEF774FD0120FEF7BF
:1019A00069FC20464FF400410122FEF76BFD4FF425
:1019B000C860FEF75FFC41F6DD2041F6F121C0F67C
:1019C0000000C0F6000100F07FFF41F6B92041F6AB
:1019D0000531C0F60000C0F6000100F091FF40F2B2
:1019E0000405C2F20005A97BEA7B2B7C6C7C43F2E8
:1019F0006E60C0F6000005F10806009401F0DAFC04
:101A00000020314600F036FA40F20414C2F200041D
:101A10000120214600F02EFAA179E279237A667A34
:101A20000FA0009601F0C6FC698813A001F0C2FC6B
:101A300029796A79AB79EE7913A0009601F0BAFCA6
:101A4000298817A001F0B6FC4FF00230CDE9040060
:101A5000CDE9020002A9012000F0A8FA06B070BD8D
:101A600057353530302069703A25642E25642E258F
:101A7000642E25640A000000573535303020706F21
:101A800072743A2025640A0072656D6F746520696E
:101A9000703A2025642E25642E25642E25640A00C4
:101AA00072656D6F746520706F72743A2025640AD8
:101AB00000000000FEE7000080B582B040F21C107C
:101AC000C2F200000DF1070101224FF0FF33FFF7D2
:101AD00011F99DF8070002B080BD000042F200003D
:101AE000C4F201004FF400710022FEF7CBBC0000ED
:101AF00042F20000C4F201004FF400710122FEF72F
:101B0000C1BC000080B582B08DF8070040F21C1007
:101B1000C2F200000DF1070101224FF0FF33FFF781
:101B2000C3F902B080BD0000B0B582B040F230050C
:101B3000C2F20005E9680446884768698047686A18
:101B400070B1AA6A62B1200C8DF80500200A8DF8E8
:101B500006000DF1050003218DF8074090470AE0CB
:101B6000296AC4F307408847296AC4F307208847D5
:101B7000296AE0B28847E8698047A969044688472E
:101B800028698047204602B0B0BD0000F0B581B0A2
:101B900040F23007C2F200070D46F96814460646C7
:101BA000884778698047786A90B1BA6A82B1300C08
:101BB0008DF80100300A8DF802000DF101000321BB
:101BC0008DF8036090477A6A28462146904713E0D3
:101BD000396AC6F307408847396AC6F30720884741
:101BE000396AF0B288473CB1013D00BFF8698047CF
:101BF000013C05F8010FF9D1B86980473869804781
:101C000001B0F0BDF0B581B040F23006C2F200067E
:101C10000C46F1680546884770698047B26A45F00E
:101C200004076AB1280C8DF80000280A8DF801001D
:101C3000684604218DF802708DF8034090470DE04E
:101C4000316AC5F307408847316AC5F307208847E2
:101C5000316AF8B28847316A20468847B0698047C0
:101C60003069804701B0F0BD2DE9F04182B040F20B
:101C70003007C2F200078846F968144606468847CE
:101C800078698047BA6A46F004058AB1300C8DF84D
:101C90000500300A8DF806000DF1050003218DF8CE
:101CA00007509047BA6A40462146904714E000BF6B
:101CB000396AC6F307408847396AC6F30720884760
:101CC000396AE8B288473CB1A8F10105396A15F8CC
:101CD000010F8847013CF9D1B869804738698047CE
:101CE00002B0BDE8F0810000082882BFFF2040B2AA
:101CF000704770B5044646014FF4847000EB4415FC
:101D000028461021FFF77EFF2846FFF70DFF002829
:101D1000FAD146F402701F21FFF774FF40F2600110
:101D2000C2F2000101200A884B88A040824323EAC6
:101D300000000A80488001EB4400002282810819DB
:101D400006F54274027100BF2046FFF7EDFE002841
:101D5000FAD10120BDE8704040B27047082882BF28
:101D6000FF2040B270472DE9F0414601804606F160
:101D700008000F461546FFF7D7FE00F00F000128B8
:101D80003CD106F542742046FFF7CEFE13283BD126
:101D9000386800BA013810F1030F3BD8002D3FD04E
:101DA00040F60840394630430422FFF75DFF41F218
:101DB00008003043290AFFF725FF41F2081030449C
:101DC000E9B2FFF71FFF06F5847528460421FFF7E7
:101DD00019FF00BF2846FFF7A7FE0028FAD140F2FE
:101DE0006000C2F20000008820FA08F0C0071DD091
:101DF0000020BDE8F04140B2704700BFFB20BDE8C5
:101E0000F04140B2704700BFFD20BDE8F04140B254
:101E1000704700BFF420BDE8F04140B2704700BFFA
:101E2000F520BDE8F04140B2704700BF46F40275AE
:101E30002046FFF779FE17280CD02846FFF774FEDE
:101E400000070DD42046FFF76FFE00284FF0FC007E
:101E5000EED1CEE70120BDE8F04140B2704700BFAF
:101E600028460821FFF7CEFEF320BDE8F04140B23E
:101E700070470000B0B5052844D80C46DFE800F0F4
:101E8000044E3E462C7600BF4FF4106021460622D9
:101E9000FFF7EAFE04F10E014FF480700422FFF711
:101EA000E3FE04F10A014FF4A0600422FFF7DCFE18
:101EB000A11D4FF470600422FFF7D6FEA07C40F213
:101EC0007C01D4F81320C2F200010870C1F801208F
:101ED000002568B2B0BD00BF21784FF4D850FFF79D
:101EE00091FEE1784FF4C850FFF78CFEA1784FF4D3
:101EF000D050FFF787FE002568B2B0BD247814F0FB
:101F0000C50F47D0FF2568B2B0BD00BF0020002537
:101F1000FFF70AFE207068B2B0BD00BF4FF410603A
:101F200021460622FFF732FE04F10E014FF48070C5
:101F30000422FFF72BFE04F10A014FF4A0600422F3
:101F4000FFF724FEA11D4FF470600422FFF71EFE70
:101F500040F27C00C2F200000178D0F80100A174C8
:101F6000C4F81300002568B2B0BD00BF4FF4D850CC
:101F7000FFF7DAFD20704FF4C850FFF7D5FD054696
:101F80004FF4D050FFF7D0FD40EA052060800025D7
:101F900068B2B0BD00200025FFF7C6FD40EA04018D
:101FA0000020FFF72FFE68B2B0BD0000B0B50F28CB
:101FB00000F204810C46DFE810F011007F0093006E
:101FC0002B00B300C900A500F1006900D90025006D
:101FD00031001300C3001700890000BF01F034F97D
:101FE000002040B2B0BD00BF4FF43850FFF79CFD59
:101FF00000F038003038B0FA80F04009207000203E
:1020000040B2B0BD204601F05FF9002040B2B0BD43
:10201000208800F0FDFF002040B2B0BD4FF43850E2
:10202000FFF782FDC0F3801100F038002170A0F1AD
:102030003801A0F12002B1FA81F1B2FA82F2490925
:1020400052091143A0F11002102A617000F2BA8007
:10205000012140F2011301FA02F2C0F201031A4217
:1020600008BF0021A0F10802182AA17000F2B18077
:10207000012000FA02F10122C0F20112114208BF50
:102080000020E070002040B2B0BD00BF40F2300040
:10209000C2F2000081782170C17861700179A1706D
:1020A0004179E17081792171C07960710020A0715E
:1020B000002040B2B0BD00BF2146002C18BF08313F
:1020C0002046BDE8B04000F0FFBF00BF4FF43850DD
:1020D000FFF72AFD00F001002070002040B2B0BDE3
:1020E0004FF4A850FFF720FD05464FF4B850FFF716
:1020F0001BFD05F0F00141EA00202080002040B2E5
:10210000B0BD00BF61784FF49850FFF77BFD217898
:102110004FF4A050FFF776FD002040B2B0BD00BFE5
:102120002088040AC1B24FF4B050FFF76BFD4FF4A2
:10213000C0502146FFF766FD002040B2B0BD00BF91
:102140002078BDE8B04001F0F9B800BF4FF4B050BE
:10215000FFF7EAFC05464FF4C050FFF7E5FC45EAFF
:1021600000202080002040B2B0BD00BF4FF43850A6
:10217000FFF7DAFC00F07F014FF43850FFF742FD23
:102180004FF43850FFF7D0FC40F080014FF4385046
:10219000FFF738FD002040B2B0BD00BF4FF49850AB
:1021A000FFF7C2FC05464FF4A050FFF7BDFC40EA24
:1021B00005202080002040B2B0BD00BFFF2040B20B
:1021C000B0BD00BF0021A0F10802182AA1707FF65F
:1021D0004FAF0020E070002040B2B0BD10B586B017
:1021E00035480DF1080C019033A0031D00690ECB9A
:1021F00005904FF44A708CE80E00FFF795FC1C2800
:1022000046D8DFE800F00F4545454545454545457D
:10221000454545454545454545474545451D454594
:102220004545530040F20400C2F2000042880120FC
:102230000121202306B0BDE8104000F02BBC00BFF8
:102240004FF40A70FFF770FCC00704D04FF40A7017
:102250000121FFF7D7FC012000F048F8C0B140F29F
:102260008404C2F2000402460120214600F056FA1E
:1022700043F28960C0F60000214601F09BF801A9F5
:102280000120112200F05EFB20468021FDF773FF44
:1022900006B010BD40F20401C2F2000131F8042B77
:1022A000012006B0BDE81040FFF758BD012006B080
:1022B000BDE81040FFF718BD4920616D2054435020
:1022C00020436C69656E740A0000000080B582B01E
:1022D000019040F27410C2F2000001A901224FF4F3
:1022E0007A73FFF753F9019802B080BD2DE9F04FE2
:1022F00085B042F2086101EB4017390A019142F2C0
:10230000087101EB401840F2300A4FEA1825C2F27A
:10231000000A4FF0000B1CE0DAF82010002088477C
:10232000DAF8201028468847DAF820105FFA88F09B
:102330008847DAF81C0034028047DAF8181006469D
:102340008847DAF81000804744EA060BD94500F0C8
:10235000AD80DAF80C008047DAF814008047DAF82C
:10236000240078B1DAF8282062B100208DF8080046
:10237000019803218DF8090002A88DF80A70904792
:102380000CE000BFDAF8201000208847DAF82010AF
:1023900001988847DAF82010F8B28847DAF81C006C
:1023A0008047DAF8181006468847DAF810008047A8
:1023B000DAF80C008047DAF814008047DAF82400D5
:1023C00070B1DAF828205AB100208DF80B000DF119
:1023D0000B0003218DF80C508DF80D8090470CE018
:1023E000DAF8201000208847DAF8201028468847BD
:1023F000DAF820105FFA88F08847DAF81C00340217
:102400008047DAF8181006468847DAF81000804747
:1024100054EA06099AD0DAF80C008047DAF814007A
:102420008047DAF8240078B1DAF8282062B1002079
:102430008DF80E00019803218DF80F000DF10E00AC
:102440008DF8107090470BE0DAF8201000208847D4
:10245000DAF8201001988847DAF82010F8B2884797
:10246000DAF81C008047DAF8181006468847DAF8D0
:1024700010008047DAF80C008047DAF81400804733
:10248000DAF8240000283FF447AFDAF82820002AC1
:102490003FF442AF00208DF811000DF1110003212F
:1024A0008DF812508DF81380904742E71FFA8BF099
:1024B00005B0BDE8F08F00002DE9F04F85B042F285
:1024C000080141EA4017390A019142F2081101EB73
:1024D000401840F2300A4FEA1825C2F2000A4FF0C5
:1024E000000B1CE0DAF8201000208847DAF82010F2
:1024F00028468847DAF820105FFA88F08847DAF82B
:102500001C0034028047DAF8181006468847DAF8CB
:102510001000804744EA060BD94500F0AD80DAF898
:102520000C008047DAF814008047DAF8240078B10C
:10253000DAF8282062B100208DF808000198032104
:102540008DF8090002A88DF80A7090470CE000BFD2
:10255000DAF8201000208847DAF820100198884720
:10256000DAF82010F8B28847DAF81C008047DAF869
:10257000181006468847DAF810008047DAF80C0091
:102580008047DAF814008047DAF8240070B1DAF8EE
:1025900028205AB100208DF80B000DF10B0003210B
:1025A0008DF80C508DF80D8090470CE0DAF8201073
:1025B00000208847DAF8201028468847DAF82010EB
:1025C0005FFA88F08847DAF81C0034028047DAF8AE
:1025D000181006468847DAF81000804754EA0609C2
:1025E0009AD0DAF80C008047DAF814008047DAF85D
:1025F000240078B1DAF8282062B100208DF80E00AE
:10260000019803218DF80F000DF10E008DF8107068
:1026100090470BE0DAF8201000208847DAF8201005
:1026200001988847DAF82010F8B28847DAF81C00D9
:102630008047DAF8181006468847DAF81000804715
:10264000DAF80C008047DAF814008047DAF8240042
:1026500000283FF447AFDAF82820002A3FF442AFC1
:1026600000208DF811000DF1110003218DF812509A
:102670008DF81380904742E71FFA8BF005B0BDE854
:10268000F08F000090B0FDF717FF00240120CDE986
:102690000B44CDE9094406900A904FF4E0104FF442
:1026A000803102250F9006A8CDE90714CDE90D5120
:1026B000FEF79EF820B1EFF3108072B6FEE700BF80
:1026C0000F20CDE901058020CDE9030401A80221F6
:1026D0000594FDF787FF28B1EFF3108072B600BFB5
:1026E000FEE700BFFFF718F8FFF778F8FFF752F89A
:1026F00006A000F095FFFFF745F900BFFFF76EFD5C
:102700004FF47A70FDF7B6FDF8E700BF53746172BD
:1027100074696E6720573535303000002DE9F04F71
:1027200083B0082806D94FF0FF36304603B0BDE825
:10273000F08F00BF4501044605F1080016460291DE
:10274000FFF7F2F900F00F0001283FD1002E43D02F
:1027500041F608602843FFF7E7F9800280B2B042F3
:1027600038BF064641F6087005EB0009012040F22B
:10277000600B05F5427A00FA04F8C2F2000B0195ED
:1027800001E000BF77BB2046FFF7B0FD074650468B
:10279000FFF7CAF917280CD01C2839D117BB2046DF
:1027A000FFF78AFE05464846FFF7BEF9B5EB802FD6
:1027B0005CD0BBF8000018EA000FE3D0002FE1D195
:1027C0000026304603B0BDE8F08F00BF6FF004066E
:1027D000304603B0BDE8F08F6FF00D06304603B011
:1027E000BDE8F08FB74238BF3E46029920463246D8
:1027F00000F024FA0198402100F584742046FFF788
:1028000001FA00BF2046FFF78FF90028FAD18CE7C4
:10281000019F102107F584763046FFF7F3F900BFDA
:102820003046FFF781F90028FAD147F402701F21E2
:10283000FFF7E8F9BBF80000BBF8021020EA080037
:10284000ABF8000021EA0800ABF802000BEB4400F3
:10285000002181810BEB04006FF00606017100BFBF
:102860005046FFF761F90028FAD15EE7019F102179
:1028700007F584763046FFF7C5F900BF3046FFF70D
:1028800053F90028FAD147F402701F21FFF7BAF973
:10289000BBF80000BBF8021020EA0800ABF800000B
:1028A00021EA0800ABF802000BEB44000021818113
:1028B0000BEB04006FF00606017100BF5046FFF7F6
:1028C00033F90028FAD130E70028024618BF012268
:1028D00000290B4618BF01231A4043F2C502C0F677
:1028E000000218BF024643F2C100C0F6000018BF44
:1028F000084640F23001C2F20001C1E905207047EC
:1029000040F2300CC2F2000CBCF800309B0501D440
:10291000FEE700BF002803460A4618BF012300292E
:1029200018BF01221A4043F24122C0F6000218BF2C
:10293000024643F24520C0F6000018BF0846CCE925
:10294000072070472DE9F04F81B0082806D94FF0D5
:10295000FF34204601B0BDE8F08F00BF4FEA4019B8
:10296000054609F1080014468846FFF7DDF800F037
:102970000F00012824D14CB309F542773846FFF700
:10298000D3F81C2801D0172826D140F2600AC2F2E1
:10299000000ABAF80200012101FA05FB1BEA000F48
:1029A0002AD049F402763046FFF7BEF8C10619D4A2
:1029B00000075BD40024204601B0BDE8F08F00BFC3
:1029C0006FF00404204601B0BDE8F08F6FF00D04F5
:1029D000204601B0BDE8F08F6FF00604204601B03C
:1029E000BDE8F08F30461021FFF70CF9BAF802006D
:1029F00020EA0B00AAF8020041F608704844FFF7ED
:102A000093F8800280B2A04238BF04462846FFF700
:102A100053FD06463846FFF787F8172801D01C28D3
:102A20002ED1BAF800001BEA000F18BFB442C1D87B
:102A3000B442EBD828464146224600F0F3F909F5A6
:102A4000847528462021FFF7DDF800BF2846FFF7F0
:102A50006BF80028FAD1BAF8020040EA0B00AAF895
:102A60000200204601B0BDE8F08F00BF2846FFF706
:102A70003BF96FF00C04204601B0BDE8F08F00BFB9
:102A80002846FFF731F96FF00604204601B0BDE893
:102A9000F08F00002DE9F04F85B0082804D9FF24FD
:102AA00060B205B0BDE8F08F0446881E1D46904612
:102AB000032880F09780680700F1BB8045B10229A8
:102AC00000F0AA80012903D115F0210F00F0B18098
:102AD0004FF4847000EB44170391384610214FEAFD
:102AE000441AFFF78FF800BF3846FFF71DF800289B
:102AF000FAD14AF402701F21FFF784F80120A040A8
:102B000040F26009C2F20009C243B9F80010029213
:102B1000B9F80220814322EA0000A9F80010A9F8C0
:102B2000020009EB4401002009EB040B0AF5427690
:102B3000019188818BF804003046FEF7F5FF0028EC
:102B4000FAD1039905F0F0024AF008001143FFF7AB
:102B500059F8B8F1000F11D140F25C00C2F2000048
:102B6000B0F800804FF6F07308F101018AB29A4282
:102B700004BF4CF20001CFF6FF7101804FEA18212B
:102B80004AF48160FFF73EF80AF5A1605FFA88F128
:102B9000FFF738F838460121FFF734F83846FEF7DA
:102BA000C3FF0028FAD1B9F80000029A05F001012C
:102BB0001040A1400843B9F80210A9F8000001EA4A
:102BC00002000199A9F80200002088818BF8040016
:102BD0003046FEF7A9FF0028FAD060B205B0BDE884
:102BE000F08F00BF012911D104AA4FF470600E4686
:102BF00011460422FEF7CAFF0498314600287FF4EC
:102C00005AAFFD2460B205B0BDE8F08FFB2460B27E
:102C100005B0BDE8F08F00BF68B2002802D415F0FF
:102C2000200206D100283FF553AF15F010003FF405
:102C30004FAFFA2460B205B0BDE8F08F002A08BF9C
:102C400070472DE9F04F83B040F23007C2F2000721
:102C50009046FA68019142F608014FEA401A01EBEA
:102C60004019904778698047786A78B1BA6A6AB142
:102C700000208DF808004FEA19208DF8090002A8FD
:102C800003218DF80A9090470BE000BF396A0020BD
:102C90008847396A4FEA19208847396A5FFA89F00C
:102CA0008847F8698047B969064688473869804788
:102CB000F96842F6081035020AEB000B884778697C
:102CC0008047786A70B1BA6A62B100208DF8080056
:102CD0004FEA1B208DF8090002A803218DF80AB0E5
:102CE00090470AE0396A00208847396A4FEA1B207A
:102CF0008847396A5FFA8BF08847F8698047B96975
:102D00000646884738698047F8682E434AF0180518
:102D100005EB0624804778698047786A90B1BA6AE3
:102D200082B1200C8DF80800200A8DF8090002A855
:102D300003218DF80A5090477A6A019841469047DE
:102D400014E000BF396AC4F307408847396AC4F306
:102D500007208847396AE8B2884701984546441EEB
:102D6000F8698047013D04F8010FF9D1B86980473F
:102D7000386980474644F968B0B2040A88477869E0
:102D80008047BA6A49F0040572B100208DF8080046
:102D90004FEA19208DF8090002A804218DF80A5085
:102DA0008DF80B4090470CE0396A00208847396A5B
:102DB0004FEA19208847396AE8B28847396A2046BD
:102DC0008847B869804738698047F86880477869DC
:102DD0008047BA6A4BF0040472B100208DF80800F5
:102DE0004FEA1B208DF8090002A804218DF80A4043
:102DF0008DF80B6090470CE0396A00208847396AEB
:102E00004FEA1B208847396AE0B28847396AF0B236
:102E10008847B86980473869804703B0BDE8F04FFC
:102E200070470000002A08BF70472DE9F04F83B0BB
:102E300040F23007C2F200079046FA68019142F270
:102E400008414FEA401A01EB4019904778698047E2
:102E5000786A78B1BA6A6AB100208DF808004FEA42
:102E600019208DF8090002A803218DF80A909047D7
:102E70000BE000BF396A00208847396A4FEA192001
:102E80008847396A5FFA89F08847F8698047B969E5
:102E90000646884738698047F96842F2085035028B
:102EA0000AEB000B884778698047786A70B1BA6A84
:102EB00062B100208DF808004FEA1B208DF8090050
:102EC00002A803218DF80AB090470AE0396A002071
:102ED0008847396A4FEA1B208847396A5FFA8BF0C6
:102EE0008847F8698047B969064688473869804746
:102EF0002E43F8680AEB062404F110058047786930
:102F00008047BA6A14347AB1280C8DF80800280A70
:102F10008DF8090002A803218DF80A409047BA6A8B
:102F200001984146904713E0396AC5F30740884746
:102F3000396AC5F307208847396AE0B288470198A3
:102F40004546441E396A14F8010F8847013DF9D1FE
:102F5000B8698047386980474644F968B0B2040AC6
:102F6000884778698047BA6A49F0040572B1002041
:102F70008DF808004FEA19208DF8090002A80421F5
:102F80008DF80A508DF80B4090470CE0396A00200C
:102F90008847396A4FEA19208847396AE8B2884772
:102FA000396A20468847B869804738698047F86899
:102FB000804778698047BA6A4BF0040472B10020F8
:102FC0008DF808004FEA1B208DF8090002A80421A3
:102FD0008DF80A408DF80B6090470CE0396A0020AC
:102FE0008847396A4FEA1B208847396AE0B2884728
:102FF000396AF0B28847B86980473869804703B0BA
:10300000BDE8F04F704700000078704701707047CE
:10301000B0B50446050A00F0F0014FF4A850FEF7E1
:10302000F1FDE8071CD1A80721D4680726D428079A
:103030002BD4E80630D4A80635D4680604D54FF45E
:1030400032701F21FEF7DEFD20B2B0F1FF3FC8BF96
:10305000B0BD4FF43A701F21BDE8B040FEF7D2BDBD
:103060004FF402701F21FEF7CDFDA807DDD54FF408
:103070000A701F21FEF7C6FD6807D8D54FF41270FD
:103080001F21FEF7BFFD2807D3D54FF41A701F216B
:10309000FEF7B8FDE806CED54FF422701F21FEF7EB
:1030A000B1FDA806C9D54FF42A701F21FEF7AAFD6D
:1030B0006806C4D4C8E700007047000070470000ED
:1030C0007047000070470000B0B50C46054600F0A0
:1030D000BBF8002D56D029780806B0F1805F00F3C8
:1030E0008280687808440206B2F1805F7BDCAA78AF
:1030F00010440206B2F1805F75DCEA7810440206E3
:10310000B2F1805F6FDC2A7910440206B2F1805F71
:1031100069DC6A7910440206B2F1805F63DCAA7947
:1031200010440206B2F1805F5DDCEA7910440006CB
:10313000B0F1805F57DC41F60870FEF763FD6978F7
:1031400041F62870FEF75EFDA97841F64870FEF75B
:1031500059FDE97841F66870FEF754FD297941F68A
:103160008870FEF74FFD697941F6A870FEF74AFDB9
:10317000A97941F6C870FEF745FDE97941F6E87096
:10318000FEF740FD002C58D021780806B0F1805F92
:1031900029DC607808440206B2F1805F23DCA27863
:1031A00010440206B2F1805F1DDCE2781044020692
:1031B000B2F1805F17DC227910440206B2F1805F21
:1031C00011DC627910440206B2F1805F0BDCA27957
:1031D00010440206B2F1805F05DCE279104400067B
:1031E000B0F1805F02DDFF2040B2B0BD41F6086063
:1031F000FEF708FD617841F62860FEF703FDA1782F
:1032000041F64860FEF7FEFCE17841F66860FEF7A3
:10321000F9FC217941F68860FEF7F4FC617941F60A
:10322000A860FEF7EFFCA17941F6C860FEF7EAFC62
:10323000E17941F6E860FEF7E5FC002040B2B0BD60
:103240000020704770470000F0B585B00DF1020412
:103250004FF4106021460622FEF798FC04AD4FF4AF
:10326000807029460422FEF791FC03AE4FF4A06063
:1032700031460422FEF78AFC02AF4FF470603946F3
:103280000422FEF783FC00208021FEF7BBFC002017
:10329000FEF74AFC4FF4106021460622FEF7E4FCDC
:1032A0004FF4807029460422FEF7DEFC4FF4A06044
:1032B00031460422FEF7D8FC4FF4706039460422F0
:1032C000FEF7D2FC05B0F0BD017842780139B1FAC1
:1032D00081F14909012A4FEA811103D141F03801F6
:1032E00010E000BFC2788078012A07D1012814BFFE
:1032F00041F0080141F0180104E000BF012808BFB7
:1033000041F0100180B54FF43850FEF77BFC4FF4CC
:103310003850FEF709FC00F07F014FF43850FEF7FB
:1033200071FC4FF43850FEF7FFFB40F080014FF482
:103330003850BDE88040FEF765BC000010B504467B
:103340004FF43850FEF7F0FB410603D4FF2040B2A3
:1033500010BD00BF00F0C70240F038014FF43850F4
:10336000012C08BF02F13001FEF74CFC4FF438503D
:10337000FEF7DAFB00F07F014FF43850FEF742FC15
:103380004FF43850FEF7D0FB40F080014FF4385036
:10339000FEF738FC4FF43850FEF7C6FB012C03D182
:1033A00010F0300F03D1D1E710F0380FCED000204D
:1033B00040B210BD0FB4054B10B503A9044A0298E2
:1033C00000F018F810BC5DF814FB0000CD220008D6
:1033D0000000002002E008C8121F08C1002AFAD12C
:1033E00070477047002001E001C1121F002AFBD185
:1033F000704700002DE9FF4F8BB09A460F460446F8
:10340000002606E025280BD052460D999047641CF3
:10341000761C20780028F5D10FB03046BDE8F08F3B
:103420000025A94601227D4900E0054314F8013F2B
:10343000203B02FA03F00842F7D120782E2817D15A
:1034400014F8010F45F004052A280ED06FF02F0262
:103450002078A0F1300109290AD809EB890102EB93
:10346000410100EB0109641CF2E757F8049B641C5E
:1034700020786C280DD004DC4C2812D06A2811D199
:1034800004E074280DD07A280CD10AE045F4001528
:1034900007E0617845F48015814202D1641C05F58E
:1034A0008015641C207869283ED006DC0028B3D043
:1034B00063280BD0642804D136E0732810D0752817
:1034C0005CD052460D999047761CA5E017F8040B86
:1034D0008DF8000000208DF80100E846012003E08F
:1034E00057F8048B4FF0FF3069074FF0000501D407
:1034F0000AE06D1C4D450DDA8542FADB18F805101F
:103500000029F6D106E06D1C8542FCDB18F8051099
:103510000029F8D12E4404E018F8010B52460D9909
:1035200090476D1EF8D277E000200A90C5F3025054
:103530004FF00A0B02280CD001CFC117021E71F107
:1035400000020CDA0023D0EB030063EB01012D2213
:1035500008E0FF1D27F00707F7E80201EEE72A055C
:1035600004D52B228DF82420012203E0EA070FD096
:103570002022F7E70DF12008089218E000200A90B9
:10358000C5F302504FF00A0B022803D001CF0021EF
:103590000022EFE7FF1D27F00707F7E80201F7E732
:1035A0005A460A9BFCF7F2FD303208F8012D50EA2A
:1035B0000102F5D1ADEB080000F1200B680701D442
:1035C0004FF00109D94502DDA9EB0B0000E0002016
:1035D0008146002506E009A85246405D0D999047B6
:1035E0006D1C761C08988542F5DB04E030205246BD
:1035F0000D999047761CB9F10001A9F10109F5DC9C
:1036000005E018F8010B52460D999047761CBBF166
:103610000001ABF1010BF4DC641CFAE6092801009F
:1036200010B5044601E0FEF751FE14F8010B044901
:103630000028F8D1BDE810400A20FEF747BE000080
:103640000000002001020000000000000000010254
:103650000304060708090000000001020304020336
:103660000405060708090A0B0C0D0E0F1010626501
:10367000666F7265207365742069703A25642E2523
:10368000642E25642E25640A00257300B0360008D8
:103690000000002060000000D4330008103700084C
:1036A0006000002058050000E4330008000000001E
:1036B0000000000089138813C0A8010B0008DC116A
:1036C0001111C0A80158FFFFFF00C0A80101909090
:1036D0009090010001000000100000000024F400A0
:1036E000010257353530300000000000B9300008C5
:1036F000BD300008C5300008C1300008093000089E
:103700000D300008000000000000000000C00000B4
:0400000508000131BD
:00000001FF
